21:53:48.495564 8136 FixParser.cpp:42 `Incoming Fix len 91: 8=FIX.4.2|9=068|35=8|52=20151006-02:53:48.165|49=XXXX|56=YYYY|34=55009|11=101|150=4|10=225| 