       21:54:19.251694 8136 c:\samsara\libraries\common\mwFixClient.h:19 Outgoing FIX len 265: 8=FIX.4.2|9=242|35=D|52=20151006-02:54:19.924|49=_SenderCompID|56=_TargetCompID|34=6259|11=201|21=1|100=AMEXO|40=2|47=I|55=BAC   160616C00025000|54=2|38=50|115=PCUS|44=2.05|60=20151006-02:54:19.924|311=BAC|202=25.00|77=O|201=1|167=OPT|200=201606|205=16|59=0|10=215| 
       21:54:19.253580 8136 FixParser.cpp:42 `Incoming Fix len 91: 8=FIX.4.2|9=068|35=8|52=20151006-02:54:19.925|49=XXXX|56=YYYY|34=55011|11=201|150=0|10=218| 
       21:54:26.656887 8136 c:\samsara\libraries\common\mwFixClient.h:19 Outgoing FIX len 240: 8=FIX.4.2|9=217|35=F|52=20151006-02:54:26.330|49=_SenderCompID|56=_TargetCompID|34=6260|11=201.0|41=201|60=20151006-02:54:26.330|55=BAC|38=50|100=AMEXO|55=BAC   160616C00025000|202=25.00|201=1|200=201606|167=OPT|205=16|115=PCUS|54=2|10=076| 
       21:54:27.073878 8136 FixParser.cpp:42 `Incoming Fix len 78: 8=FIX.4.2|9=055|35=0|52=20151006-02:54:27.745|49=XXXX|56=YYYY|34=55012|10=151|150=0|10=218| 
       21:54:29.291957 8136 FixParser.cpp:42 `Incoming Fix len 91: 8=FIX.4.2|9=068|35=8|52=20151006-02:54:29.964|49=XXXX|56=YYYY|34=55013|11=201|150=4|10=228| 
       21:54:29.292011 8136 OrderInfoBase.cpp:107 SetStatus called for order num 201 status cancelled