21:53:40.541283 8136 FixParser.cpp:42 `Incoming Fix len 91: 8=FIX.4.2|9=068|35=8|52=20151006-02:53:40.212|49=XXXX|56=YYYY|34=55008|11=101|150=0|10=205| 