       21:55:16.455578 8136 c:\samsara\libraries\common\mwFixClient.h:19 Outgoing FIX len 265: 8=FIX.4.2|9=242|35=D|52=20151006-02:55:16.129|49=_SenderCompID|56=_TargetCompID|34=6264|11=501|21=1|100=AMEXO|40=2|47=I|55=BAC   160616C00025000|54=2|38=50|115=PCUS|44=2.05|60=20151006-02:55:16.129|311=BAC|202=25.00|77=O|201=1|167=OPT|200=201606|205=16|59=0|10=204| 
       21:55:16.457440 8136 FixParser.cpp:42 `Incoming Fix len 91: 8=FIX.4.2|9=068|35=8|52=20151006-02:55:16.130|49=XXXX|56=YYYY|34=55019|11=501|150=0|10=215|1=1.97|10=079| 
       21:55:27.052834 8136 FixParser.cpp:42 `Incoming Fix len 105: 8=FIX.4.2|9=082|35=8|52=20151006-02:55:27.725|49=XXXX|56=YYYY|34=55020|11=501|150=2|32=50|31=2.05|10=072| 