21:53:33.299180 8136 c:\samsara\libraries\common\mwFixClient.h:19 Outgoing FIX len 265: 8=FIX.4.2|9=242|35=D|52=20151006-02:53:33.971|49=_SenderCompID|56=_TargetCompID|34=6257|11=101|21=1|100=AMEXO|40=2|47=I|55=BAC   160616C00025000|54=1|38=50|115=PCUS|44=2.00|60=20151006-02:53:33.971|311=BAC|202=25.00|77=O|201=1|167=OPT|200=201606|205=16|59=0|10=200| 