#heartbeat
       21:52:50.095582 8136 c:\samsara\libraries\common\mwFixClient.h:19 Outgoing FIX len 107: 8=FIX.4.2|9=084|35=A|52=20151006-02:52:50.765|49=_SenderCompID|56=_TargetCompID|34=6255|98=0|108=30|10=142| 
   
       21:52:57.031892 8136 FixParser.cpp:42 `Incoming Fix len 78: 8=FIX.4.2|9=055|35=0|52=20151006-02:52:57.702|49=XXXX|56=YYYY|34=55006|10=148| 

#send order	   
       21:53:33.299180 8136 c:\samsara\libraries\common\mwFixClient.h:19 Outgoing FIX len 265: 8=FIX.4.2|9=242|35=D|52=20151006-02:53:33.971|49=_SenderCompID|56=_TargetCompID|34=6257|11=101|21=1|100=AMEXO|40=2|47=I|55=BAC   160616C00025000|54=1|38=50|115=PCUS|44=2.00|60=20151006-02:53:33.971|311=BAC|202=25.00|77=O|201=1|167=OPT|200=201606|205=16|59=0|10=200| 
       
#incoming confirmation of order receipt
       21:53:40.541283 8136 FixParser.cpp:42 `Incoming Fix len 91: 8=FIX.4.2|9=068|35=8|52=20151006-02:53:40.212|49=XXXX|56=YYYY|34=55008|11=101|150=0|10=205| 
       
#canceled message from server, no cancel request sent
       21:53:48.495564 8136 FixParser.cpp:42 `Incoming Fix len 91: 8=FIX.4.2|9=068|35=8|52=20151006-02:53:48.165|49=XXXX|56=YYYY|34=55009|11=101|150=4|10=225| 
       
#order with cancel request sent by client	   
       21:54:19.251694 8136 c:\samsara\libraries\common\mwFixClient.h:19 Outgoing FIX len 265: 8=FIX.4.2|9=242|35=D|52=20151006-02:54:19.924|49=_SenderCompID|56=_TargetCompID|34=6259|11=201|21=1|100=AMEXO|40=2|47=I|55=BAC   160616C00025000|54=2|38=50|115=PCUS|44=2.05|60=20151006-02:54:19.924|311=BAC|202=25.00|77=O|201=1|167=OPT|200=201606|205=16|59=0|10=215| 
       21:54:19.253580 8136 FixParser.cpp:42 `Incoming Fix len 91: 8=FIX.4.2|9=068|35=8|52=20151006-02:54:19.925|49=XXXX|56=YYYY|34=55011|11=201|150=0|10=218| 
       21:54:26.656887 8136 c:\samsara\libraries\common\mwFixClient.h:19 Outgoing FIX len 240: 8=FIX.4.2|9=217|35=F|52=20151006-02:54:26.330|49=_SenderCompID|56=_TargetCompID|34=6260|11=201.0|41=201|60=20151006-02:54:26.330|55=BAC|38=50|100=AMEXO|55=BAC   160616C00025000|202=25.00|201=1|200=201606|167=OPT|205=16|115=PCUS|54=2|10=076| 
       21:54:27.073878 8136 FixParser.cpp:42 `Incoming Fix len 78: 8=FIX.4.2|9=055|35=0|52=20151006-02:54:27.745|49=XXXX|56=YYYY|34=55012|10=151|150=0|10=218| 
       21:54:29.291957 8136 FixParser.cpp:42 `Incoming Fix len 91: 8=FIX.4.2|9=068|35=8|52=20151006-02:54:29.964|49=XXXX|56=YYYY|34=55013|11=201|150=4|10=228| 
       21:54:29.292011 8136 OrderInfoBase.cpp:107 SetStatus called for order num 201 status cancelled 
       
#order filled after cancel request sent (too late)
	   21:54:34.716127 8136 c:\samsara\libraries\common\mwFixClient.h:19 Outgoing FIX len 265: 8=FIX.4.2|9=242|35=D|52=20151006-02:54:34.389|49=_SenderCompID|56=_TargetCompID|34=6261|11=301|21=1|100=AMEXO|40=2|47=I|55=BAC   160616C00025000|54=2|38=50|115=PCUS|44=2.05|60=20151006-02:54:34.389|311=BAC|202=25.00|77=O|201=1|167=OPT|200=201606|205=16|59=0|10=213| 
       21:54:34.720057 8136 FixParser.cpp:42 `Incoming Fix len 91: 8=FIX.4.2|9=068|35=8|52=20151006-02:54:34.391|49=XXXX|56=YYYY|34=55014|11=301|150=0|10=216| 
       21:54:39.592333 8136 c:\samsara\libraries\common\mwFixClient.h:19 Outgoing FIX len 240: 8=FIX.4.2|9=217|35=F|52=20151006-02:54:39.265|49=_SenderCompID|56=_TargetCompID|34=6262|11=301.0|41=301|60=20151006-02:54:39.265|55=BAC|38=50|100=AMEXO|55=BAC   160616C00025000|202=25.00|201=1|200=201606|167=OPT|205=16|115=PCUS|54=2|10=102| 
       21:54:39.592339 8136 OrderInfoBase.cpp:107 SetStatus called for order num 301 status cancel_sent 
       21:54:48.124647 8136 FixParser.cpp:42 `Incoming Fix len 105: 8=FIX.4.2|9=082|35=8|52=20151006-02:54:48.797|49=XXXX|56=YYYY|34=55015|11=301|150=2|32=50|31=2.05|10=085| 
       
#order filled - note at different price than sent
       21:54:48.127736 8136 c:\samsara\libraries\common\mwFixClient.h:19 Outgoing FIX len 266: 8=FIX.4.2|9=243|35=D|52=20151006-02:54:48.801|49=_SenderCompID|56=_TargetCompID|34=6263|11=401|21=1|100=SMARTO|40=2|47=I|55=BAC   160616C00025000|54=1|38=50|115=PCUS|44=2.00|60=20151006-02:54:48.801|311=BAC|202=25.00|77=C|201=1|167=OPT|200=201606|205=16|59=0|10=023| 
       21:54:48.129664 8136 FixParser.cpp:42 `Incoming Fix len 91: 8=FIX.4.2|9=068|35=8|52=20151006-02:54:48.802|49=XXXX|56=YYYY|34=55016|11=401|150=0|10=221|1=2.05|10=085| 
       21:54:57.086840 8136 FixParser.cpp:42 `Incoming Fix len 78: 8=FIX.4.2|9=055|35=0|52=20151006-02:54:57.758|49=XXXX|56=YYYY|34=55017|10=163|150=0|10=221|1=2.05|10=085| 
       21:55:06.739185 8136 FixParser.cpp:42 `Incoming Fix len 105: 8=FIX.4.2|9=082|35=8|52=20151006-02:55:06.413|49=XXXX|56=YYYY|34=55018|11=401|150=2|32=50|31=1.97|10=079| 
       
#normal fill
       21:55:16.455578 8136 c:\samsara\libraries\common\mwFixClient.h:19 Outgoing FIX len 265: 8=FIX.4.2|9=242|35=D|52=20151006-02:55:16.129|49=_SenderCompID|56=_TargetCompID|34=6264|11=501|21=1|100=AMEXO|40=2|47=I|55=BAC   160616C00025000|54=2|38=50|115=PCUS|44=2.05|60=20151006-02:55:16.129|311=BAC|202=25.00|77=O|201=1|167=OPT|200=201606|205=16|59=0|10=204| 
       21:55:16.457440 8136 FixParser.cpp:42 `Incoming Fix len 91: 8=FIX.4.2|9=068|35=8|52=20151006-02:55:16.130|49=XXXX|56=YYYY|34=55019|11=501|150=0|10=215|1=1.97|10=079| 
       21:55:27.052834 8136 FixParser.cpp:42 `Incoming Fix len 105: 8=FIX.4.2|9=082|35=8|52=20151006-02:55:27.725|49=XXXX|56=YYYY|34=55020|11=501|150=2|32=50|31=2.05|10=072| 

	   
#one order sent and partialled multiple times, another is rejected
       21:55:27.055864 8136 c:\samsara\libraries\common\mwFixClient.h:19 Outgoing FIX len 266: 8=FIX.4.2|9=243|35=D|52=20151006-02:55:27.730|49=_SenderCompID|56=_TargetCompID|34=6265|11=601|21=1|100=SMARTO|40=2|47=I|55=BAC   160616C00025000|54=1|38=50|115=PCUS|44=2.00|60=20151006-02:55:27.730|311=BAC|202=25.00|77=C|201=1|167=OPT|200=201606|205=16|59=0|10=025| 
       21:55:27.059819 8136 FixParser.cpp:42 `Incoming Fix len 91: 8=FIX.4.2|9=068|35=8|52=20151006-02:55:27.732|49=XXXX|56=YYYY|34=55021|11=601|150=0|10=219|1=2.05|10=072| 
       21:55:27.099829 8136 FixParser.cpp:42 `Incoming Fix len 78: 8=FIX.4.2|9=055|35=0|52=20151006-02:55:27.773|49=XXXX|56=YYYY|34=55022|10=154|150=0|10=219|1=2.05|10=072| 
       21:55:36.899114 8136 FixParser.cpp:42 `Incoming Fix len 105: 8=FIX.4.2|9=082|35=8|52=20151006-02:55:36.572|49=XXXX|56=YYYY|34=55023|11=601|150=1|32=10|31=2.05|10=071| 
       21:55:36.902246 8136 c:\samsara\libraries\common\mwFixClient.h:19 Outgoing FIX len 265: 8=FIX.4.2|9=242|35=D|52=20151006-02:55:36.577|49=_SenderCompID|56=_TargetCompID|34=6266|11=701|21=1|100=AMEXO|40=2|47=I|55=BAC   160616C00025000|54=2|38=50|115=PCUS|44=2.05|60=20151006-02:55:36.577|311=BAC|202=25.00|77=O|201=1|167=OPT|200=201606|205=16|59=0|10=226| 
       21:55:36.906179 8136 FixParser.cpp:42 `Incoming Fix len 91: 8=FIX.4.2|9=068|35=8|52=20151006-02:55:36.579|49=XXXX|56=YYYY|34=55024|11=701|150=0|10=232|1=2.05|10=071| 
       21:55:38.948188 8136 FixParser.cpp:42 `Incoming Fix len 105: 8=FIX.4.2|9=082|35=8|52=20151006-02:55:38.621|49=XXXX|56=YYYY|34=55025|11=601|150=1|32=10|31=2.05|10=070| 
       21:55:46.412434 8136 FixParser.cpp:42 `Incoming Fix len 105: 8=FIX.4.2|9=082|35=8|52=20151006-02:55:46.085|49=XXXX|56=YYYY|34=55026|11=601|150=1|32=10|31=2.05|10=074| 
       21:55:54.346669 8136 FixParser.cpp:42 `Incoming Fix len 105: 8=FIX.4.2|9=082|35=8|52=20151006-02:55:54.021|49=XXXX|56=YYYY|34=55027|11=601|150=2|32=20|31=2.05|10=066| 
       21:55:57.114813 8136 FixParser.cpp:42 `Incoming Fix len 78: 8=FIX.4.2|9=055|35=0|52=20151006-02:55:57.788|49=XXXX|56=YYYY|34=55028|10=169|150=2|32=20|31=2.05|10=066| 
       21:56:02.033979 8136 FixParser.cpp:42 `Incoming Fix len 91: 8=FIX.4.2|9=068|35=8|52=20151006-02:56:02.708|49=XXXX|56=YYYY|34=55029|11=701|150=8|10=233|1=2.05|10=066| 

