2:01:52.789128 5616 FixParser.cpp:42 `Incoming Fix len 104: 8=FIX.4.2|9=081|35=A|52=20141103-18:01:52.322|49=_SenderCompID|56=_TargetCompID|34=1|98=0|108=30|10=223| 
2:02:22.737545 5616 FixParser.cpp:42 `Incoming Fix len 92: 8=FIX.4.2|9=069|35=0|52=20141103-18:02:22.274|49=_SenderCompID|56=_TargetCompID|34=2|10=192|8=30|10=223| 
2:02:52.688525 5616 FixParser.cpp:42 `Incoming Fix len 92: 8=FIX.4.2|9=069|35=0|52=20141103-18:02:52.226|49=_SenderCompID|56=_TargetCompID|34=3|10=193|8=30|10=223| 
2:03:22.639721 5616 FixParser.cpp:42 `Incoming Fix len 92: 8=FIX.4.2|9=069|35=0|52=20141103-18:03:22.178|49=_SenderCompID|56=_TargetCompID|34=4|10=198|8=30|10=223| 
2:03:52.590741 5616 FixParser.cpp:42 `Incoming Fix len 92: 8=FIX.4.2|9=069|35=0|52=20141103-18:03:52.129|49=_SenderCompID|56=_TargetCompID|34=5|10=198|8=30|10=223| 
2:04:22.539915 5616 FixParser.cpp:42 `Incoming Fix len 92: 8=FIX.4.2|9=069|35=0|52=20141103-18:04:22.080|49=_SenderCompID|56=_TargetCompID|34=6|10=193|8=30|10=223| 
2:04:52.490950 5616 FixParser.cpp:42 `Incoming Fix len 92: 8=FIX.4.2|9=069|35=0|52=20141103-18:04:52.032|49=_SenderCompID|56=_TargetCompID|34=7|10=194|8=30|10=223| 
2:05:21.442142 5616 FixParser.cpp:42 `Incoming Fix len 92: 8=FIX.4.2|9=069|35=0|52=20141103-18:05:21.983|49=_SenderCompID|56=_TargetCompID|34=8|10=207|8=30|10=223| 
2:05:22.657346 5616 FixParser.cpp:42 `Incoming Fix len 270: 8=FIX.4.2|9=247|35=D|52=20141103-18:05:22.198|49=_SenderCompID|56=_TargetCompID|34=9|11=101|21=1|100=AMEXO|40=2|47=I|55=GPRE  160616C00040000|54=2|38=50|115=PCUS|44=0.25|1=TEST|60=20141103-18:05:22.198|311=GPRE|202=40.00|77=O|201=1|167=OPT|200=201606|205=16|59=0|10=145| 
2:05:29.463231 5616 ReadAndLogicThread.cpp:493 Outgoing FIX len 87: 8=FIX.4.2|9=064|35=8|52=20141103-18:05:29.005|49=XXXX|56=YYYY|34=1|11=101|150=0|10=000| 
2:05:52.608025 5616 FixParser.cpp:42 `Incoming Fix len 93: 8=FIX.4.2|9=070|35=0|52=20141103-18:05:52.149|49=_SenderCompID|56=_TargetCompID|34=10|10=238|1=1|100=AMEXO|40=2|47=I|55=GPRE  160616C00040000|54=2|38=50|115=PCUS|44=0.25|1=TEST|60=20141103-18:05:22.198|311=GPRE|202=40.00|77=O|201=1|167=OPT|200=201606|205=16|59=0|10=145| 
2:05:55.470244 5616 ReadAndLogicThread.cpp:493 Outgoing FIX len 101: 8=FIX.4.2|9=078|35=8|52=20141103-18:05:55.012|49=XXXX|56=YYYY|34=2|11=101|150=2|32=50|31=0.25|10=116| 
2:05:55.474514 5616 FixParser.cpp:42 `Incoming Fix len 272: 8=FIX.4.2|9=249|35=D|52=20141103-18:05:55.016|49=_SenderCompID|56=_TargetCompID|34=11|11=201|21=1|100=SMARTO|40=2|47=I|55=GPRE  160616C00040000|54=1|38=50|115=PCUS|44=0.20|1=TEST|60=20141103-18:05:55.016|311=GPRE|202=40.00|77=C|201=1|167=OPT|200=201606|205=16|59=0|10=253| 
2:05:55.475240 5616 ReadAndLogicThread.cpp:493 Outgoing FIX len 87: 8=FIX.4.2|9=064|35=8|52=20141103-18:05:55.017|49=XXXX|56=YYYY|34=3|11=201|150=0|10=005| 
2:05:58.375373 5616 ReadAndLogicThread.cpp:493 Outgoing FIX len 101: 8=FIX.4.2|9=078|35=8|52=20141103-18:05:58.917|49=XXXX|56=YYYY|34=4|11=201|150=2|32=50|31=0.20|10=131| 
2:05:58.379398 5616 FixParser.cpp:42 `Incoming Fix len 271: 8=FIX.4.2|9=248|35=D|52=20141103-18:05:58.920|49=_SenderCompID|56=_TargetCompID|34=12|11=301|21=1|100=AMEXO|40=2|47=I|55=GPRE  160616C00040000|54=2|38=50|115=PCUS|44=0.25|1=TEST|60=20141103-18:05:58.920|311=GPRE|202=40.00|77=O|201=1|167=OPT|200=201606|205=16|59=0|10=194|| 
2:05:58.380361 5616 ReadAndLogicThread.cpp:493 Outgoing FIX len 87: 8=FIX.4.2|9=064|35=8|52=20141103-18:05:58.922|49=XXXX|56=YYYY|34=5|11=301|150=0|10=016| 
2:06:28.329487 5616 FixParser.cpp:42 `Incoming Fix len 93: 8=FIX.4.2|9=070|35=0|52=20141103-18:06:28.872|49=_SenderCompID|56=_TargetCompID|34=13|10=248|21=1|100=AMEXO|40=2|47=I|55=GPRE  160616C00040000|54=2|38=50|115=PCUS|44=0.25|1=TEST|60=20141103-18:05:58.920|311=GPRE|202=40.00|77=O|201=1|167=OPT|200=201606|205=16|59=0|10=194|| 
2:06:58.280548 5616 FixParser.cpp:42 `Incoming Fix len 93: 8=FIX.4.2|9=070|35=0|52=20141103-18:06:58.823|49=_SenderCompID|56=_TargetCompID|34=14|10=248|21=1|100=AMEXO|40=2|47=I|55=GPRE  160616C00040000|54=2|38=50|115=PCUS|44=0.25|1=TEST|60=20141103-18:05:58.920|311=GPRE|202=40.00|77=O|201=1|167=OPT|200=201606|205=16|59=0|10=194|| 
2:07:18.136218 5616 FixParser.cpp:42 `Incoming Fix len 271: 8=FIX.4.2|9=248|35=D|52=20141103-18:07:18.679|49=_SenderCompID|56=_TargetCompID|34=15|11=401|21=1|100=AMEXO|40=2|47=I|55=GPRE  160616C00040000|54=1|38=50|115=PCUS|44=0.20|1=TEST|60=20141103-18:07:18.679|311=GPRE|202=40.00|77=O|201=1|167=OPT|200=201606|205=16|59=0|10=210|| 
2:07:18.137228 5616 ReadAndLogicThread.cpp:493 Outgoing FIX len 87: 8=FIX.4.2|9=064|35=8|52=20141103-18:07:18.681|49=XXXX|56=YYYY|34=6|11=401|150=0|10=018| 
2:07:23.712631 5616 FixParser.cpp:42 `Incoming Fix len 246: 8=FIX.4.2|9=223|35=F|52=20141103-18:07:23.256|49=_SenderCompID|56=_TargetCompID|34=16|11=301.0|41=301|60=20141103-18:07:23.256|55=GPRE|38=50|100=AMEXO|1=TEST|55=GPRE  160616C00040000|202=40.00|201=1|200=201606|167=OPT|205=16|115=PCUS|54=2|10=073|01606|205=16|59=0|10=210|| 
2:07:25.812517 5616 ReadAndLogicThread.cpp:493 Outgoing FIX len 87: 8=FIX.4.2|9=064|35=8|52=20141103-18:07:25.356|49=XXXX|56=YYYY|34=7|11=301|150=4|10=019| 
2:07:31.332716 5616 FixParser.cpp:42 `Incoming Fix len 271: 8=FIX.4.2|9=248|35=D|52=20141103-18:07:31.876|49=_SenderCompID|56=_TargetCompID|34=17|11=501|21=1|100=AMEXO|40=2|47=I|55=GPRE  160616C00040000|54=2|38=50|115=PCUS|44=0.30|1=TEST|60=20141103-18:07:31.876|311=GPRE|202=40.00|77=O|201=1|167=OPT|200=201606|205=16|59=0|10=203|| 
2:07:31.333754 5616 ReadAndLogicThread.cpp:493 Outgoing FIX len 87: 8=FIX.4.2|9=064|35=8|52=20141103-18:07:31.878|49=XXXX|56=YYYY|34=8|11=501|150=0|10=024| 
2:07:41.459050 5616 ReadAndLogicThread.cpp:493 Outgoing FIX len 101: 8=FIX.4.2|9=078|35=8|52=20141103-18:07:41.003|49=XXXX|56=YYYY|34=9|11=401|150=1|32=10|31=0.20|10=113| 
2:07:41.461040 5616 FixParser.cpp:42 `Incoming Fix len 272: 8=FIX.4.2|9=249|35=D|52=20141103-18:07:41.004|49=_SenderCompID|56=_TargetCompID|34=18|11=601|21=1|100=SMARTO|40=2|47=I|55=GPRE  160616C00040000|54=2|38=10|115=PCUS|44=0.25|1=TEST|60=20141103-18:07:41.004|311=GPRE|202=40.00|77=C|201=1|167=OPT|200=201606|205=16|59=0|10=254| 
2:07:41.462797 5616 ReadAndLogicThread.cpp:493 Outgoing FIX len 88: 8=FIX.4.2|9=065|35=8|52=20141103-18:07:41.006|49=XXXX|56=YYYY|34=10|11=601|150=0|10=051| 
2:08:10.412157 5616 FixParser.cpp:42 `Incoming Fix len 93: 8=FIX.4.2|9=070|35=0|52=20141103-18:08:10.956|49=_SenderCompID|56=_TargetCompID|34=19|10=250|21=1|100=SMARTO|40=2|47=I|55=GPRE  160616C00040000|54=2|38=10|115=PCUS|44=0.25|1=TEST|60=20141103-18:07:41.004|311=GPRE|202=40.00|77=C|201=1|167=OPT|200=201606|205=16|59=0|10=254| 
2:08:40.362385 5616 FixParser.cpp:42 `Incoming Fix len 93: 8=FIX.4.2|9=070|35=0|52=20141103-18:08:40.908|49=_SenderCompID|56=_TargetCompID|34=20|10=242|21=1|100=SMARTO|40=2|47=I|55=GPRE  160616C00040000|54=2|38=10|115=PCUS|44=0.25|1=TEST|60=20141103-18:07:41.004|311=GPRE|202=40.00|77=C|201=1|167=OPT|200=201606|205=16|59=0|10=254| 
2:08:45.457390 5616 ReadAndLogicThread.cpp:493 Outgoing FIX len 101: 8=FIX.4.2|9=078|35=8|52=20141103-18:08:45.003|49=XXXX|56=YYYY|34=11|11=601|150=1|32=5|31=0.25|10=122| 
2:08:48.234613 5616 ReadAndLogicThread.cpp:493 Outgoing FIX len 101: 8=FIX.4.2|9=078|35=8|52=20141103-18:08:48.780|49=XXXX|56=YYYY|34=12|11=601|150=2|32=5|31=0.25|10=139| 
2:09:10.313418 5616 FixParser.cpp:42 `Incoming Fix len 93: 8=FIX.4.2|9=070|35=0|52=20141103-18:09:10.859|49=_SenderCompID|56=_TargetCompID|34=21|10=246|21=1|100=SMARTO|40=2|47=I|55=GPRE  160616C00040000|54=2|38=10|115=PCUS|44=0.25|1=TEST|60=20141103-18:07:41.004|311=GPRE|202=40.00|77=C|201=1|167=OPT|200=201606|205=16|59=0|10=254| 
2:09:29.722178 5616 FixParser.cpp:42 `Incoming Fix len 270: 8=FIX.4.2|9=247|35=D|52=20141103-18:09:29.268|49=_SenderCompID|56=_TargetCompID|34=22|11=701|21=1|100=AMEXO|40=2|47=I|55=SLV   170616C00055000|54=1|38=50|115=PCUS|44=0.40|1=TEST|60=20141103-18:09:29.268|311=SLV|202=55.00|77=O|201=1|167=OPT|200=201706|205=16|59=0|10=140|4| 
2:09:29.723134 5616 ReadAndLogicThread.cpp:493 Outgoing FIX len 88: 8=FIX.4.2|9=065|35=8|52=20141103-18:09:29.269|49=XXXX|56=YYYY|34=13|11=701|150=0|10=074| 
2:09:59.672201 5616 FixParser.cpp:42 `Incoming Fix len 93: 8=FIX.4.2|9=070|35=0|52=20141103-18:09:59.219|49=_SenderCompID|56=_TargetCompID|34=23|10=251|21=1|100=AMEXO|40=2|47=I|55=SLV   170616C00055000|54=1|38=50|115=PCUS|44=0.40|1=TEST|60=20141103-18:09:29.268|311=SLV|202=55.00|77=O|201=1|167=OPT|200=201706|205=16|59=0|10=140|4| 
2:10:29.622314 5616 FixParser.cpp:42 `Incoming Fix len 93: 8=FIX.4.2|9=070|35=0|52=20141103-18:10:29.170|49=_SenderCompID|56=_TargetCompID|34=24|10=237|21=1|100=AMEXO|40=2|47=I|55=SLV   170616C00055000|54=1|38=50|115=PCUS|44=0.40|1=TEST|60=20141103-18:09:29.268|311=SLV|202=55.00|77=O|201=1|167=OPT|200=201706|205=16|59=0|10=140|4| 
2:10:59.573309 5616 FixParser.cpp:42 `Incoming Fix len 93: 8=FIX.4.2|9=070|35=0|52=20141103-18:10:59.121|49=_SenderCompID|56=_TargetCompID|34=25|10=237|21=1|100=AMEXO|40=2|47=I|55=SLV   170616C00055000|54=1|38=50|115=PCUS|44=0.40|1=TEST|60=20141103-18:09:29.268|311=SLV|202=55.00|77=O|201=1|167=OPT|200=201706|205=16|59=0|10=140|4| 
2:11:29.524458 5616 FixParser.cpp:42 `Incoming Fix len 93: 8=FIX.4.2|9=070|35=0|52=20141103-18:11:29.073|49=_SenderCompID|56=_TargetCompID|34=26|10=242|21=1|100=AMEXO|40=2|47=I|55=SLV   170616C00055000|54=1|38=50|115=PCUS|44=0.40|1=TEST|60=20141103-18:09:29.268|311=SLV|202=55.00|77=O|201=1|167=OPT|200=201706|205=16|59=0|10=140|4| 
2:11:59.476467 5616 FixParser.cpp:42 `Incoming Fix len 93: 8=FIX.4.2|9=070|35=0|52=20141103-18:11:59.025|49=_SenderCompID|56=_TargetCompID|34=27|10=243|21=1|100=AMEXO|40=2|47=I|55=SLV   170616C00055000|54=1|38=50|115=PCUS|44=0.40|1=TEST|60=20141103-18:09:29.268|311=SLV|202=55.00|77=O|201=1|167=OPT|200=201706|205=16|59=0|10=140|4| 
2:12:14.621024 5616 ReadAndLogicThread.cpp:493 Outgoing FIX len 102: 8=FIX.4.2|9=079|35=8|52=20141103-18:12:14.171|49=XXXX|56=YYYY|34=14|11=701|150=1|32=25|31=0.40|10=171| 
2:12:14.625641 5616 FixParser.cpp:42 `Incoming Fix len 271: 8=FIX.4.2|9=248|35=D|52=20141103-18:12:14.174|49=_SenderCompID|56=_TargetCompID|34=28|11=801|21=1|100=SMARTO|40=2|47=I|55=SLV   170616C00055000|54=2|38=25|115=PCUS|44=0.41|1=TEST|60=20141103-18:12:14.174|311=SLV|202=55.00|77=C|201=1|167=OPT|200=201706|205=16|59=0|10=200|| 
2:12:14.626594 5616 ReadAndLogicThread.cpp:493 Outgoing FIX len 88: 8=FIX.4.2|9=065|35=8|52=20141103-18:12:14.176|49=XXXX|56=YYYY|34=15|11=801|150=0|10=062| 
2:12:44.575051 5616 FixParser.cpp:42 `Incoming Fix len 93: 8=FIX.4.2|9=070|35=0|52=20141103-18:12:44.125|49=_SenderCompID|56=_TargetCompID|34=29|10=241|21=1|100=SMARTO|40=2|47=I|55=SLV   170616C00055000|54=2|38=25|115=PCUS|44=0.41|1=TEST|60=20141103-18:12:14.174|311=SLV|202=55.00|77=C|201=1|167=OPT|200=201706|205=16|59=0|10=200|| 
2:13:14.525226 5616 FixParser.cpp:42 `Incoming Fix len 93: 8=FIX.4.2|9=070|35=0|52=20141103-18:13:14.076|49=_SenderCompID|56=_TargetCompID|34=30|10=236|21=1|100=SMARTO|40=2|47=I|55=SLV   170616C00055000|54=2|38=25|115=PCUS|44=0.41|1=TEST|60=20141103-18:12:14.174|311=SLV|202=55.00|77=C|201=1|167=OPT|200=201706|205=16|59=0|10=200|| 
2:13:44.477287 5616 FixParser.cpp:42 `Incoming Fix len 93: 8=FIX.4.2|9=070|35=0|52=20141103-18:13:44.028|49=_SenderCompID|56=_TargetCompID|34=31|10=237|21=1|100=SMARTO|40=2|47=I|55=SLV   170616C00055000|54=2|38=25|115=PCUS|44=0.41|1=TEST|60=20141103-18:12:14.174|311=SLV|202=55.00|77=C|201=1|167=OPT|200=201706|205=16|59=0|10=200|| 
2:14:11.529315 5616 ReadAndLogicThread.cpp:493 Outgoing FIX len 102: 8=FIX.4.2|9=079|35=8|52=20141103-18:14:11.081|49=XXXX|56=YYYY|34=16|11=501|150=1|32=10|31=0.30|10=163| 
2:14:11.533858 5616 FixParser.cpp:42 `Incoming Fix len 272: 8=FIX.4.2|9=249|35=D|52=20141103-18:14:11.085|49=_SenderCompID|56=_TargetCompID|34=32|11=901|21=1|100=SMARTO|40=2|47=I|55=GPRE  160616C00040000|54=1|38=10|115=PCUS|44=0.25|1=TEST|60=20141103-18:14:11.085|311=GPRE|202=40.00|77=C|201=1|167=OPT|200=201606|205=16|59=0|10=004| 
2:14:11.534370 5616 ReadAndLogicThread.cpp:493 Outgoing FIX len 88: 8=FIX.4.2|9=065|35=8|52=20141103-18:14:11.086|49=XXXX|56=YYYY|34=17|11=901|150=0|10=064| 
12:14:41.484458 5616 FixParser.cpp:42 `Incoming Fix len 93: 8=FIX.4.2|9=070|35=0|52=20141103-18:14:41.037|49=_SenderCompID|56=_TargetCompID|34=33|10=237|21=1|100=SMARTO|40=2|47=I|55=GPRE  160616C00040000|54=1|38=10|115=PCUS|44=0.25|1=TEST|60=20141103-18:14:11.085|311=GPRE|202=40.00|77=C|201=1|167=OPT|200=201606|205=16|59=0|10=004| 
12:15:10.435556 5616 FixParser.cpp:42 `Incoming Fix len 93: 8=FIX.4.2|9=070|35=0|52=20141103-18:15:10.989|49=_SenderCompID|56=_TargetCompID|34=34|10=251|21=1|100=SMARTO|40=2|47=I|55=GPRE  160616C00040000|54=1|38=10|115=PCUS|44=0.25|1=TEST|60=20141103-18:14:11.085|311=GPRE|202=40.00|77=C|201=1|167=OPT|200=201606|205=16|59=0|10=004| 
12:15:40.386568 5616 FixParser.cpp:42 `Incoming Fix len 93: 8=FIX.4.2|9=070|35=0|52=20141103-18:15:40.940|49=_SenderCompID|56=_TargetCompID|34=35|10=242|21=1|100=SMARTO|40=2|47=I|55=GPRE  160616C00040000|54=1|38=10|115=PCUS|44=0.25|1=TEST|60=20141103-18:14:11.085|311=GPRE|202=40.00|77=C|201=1|167=OPT|200=201606|205=16|59=0|10=004| 
12:16:10.338628 5616 FixParser.cpp:42 `Incoming Fix len 93: 8=FIX.4.2|9=070|35=0|52=20141103-18:16:10.892|49=_SenderCompID|56=_TargetCompID|34=36|10=247|21=1|100=SMARTO|40=2|47=I|55=GPRE  160616C00040000|54=1|38=10|115=PCUS|44=0.25|1=TEST|60=20141103-18:14:11.085|311=GPRE|202=40.00|77=C|201=1|167=OPT|200=201606|205=16|59=0|10=004| 
12:16:40.289741 5616 FixParser.cpp:42 `Incoming Fix len 93: 8=FIX.4.2|9=070|35=0|52=20141103-18:16:40.844|49=_SenderCompID|56=_TargetCompID|34=37|10=248|21=1|100=SMARTO|40=2|47=I|55=GPRE  160616C00040000|54=1|38=10|115=PCUS|44=0.25|1=TEST|60=20141103-18:14:11.085|311=GPRE|202=40.00|77=C|201=1|167=OPT|200=201606|205=16|59=0|10=004| 
12:17:10.240836 5616 FixParser.cpp:42 `Incoming Fix len 93: 8=FIX.4.2|9=070|35=0|52=20141103-18:17:10.796|49=_SenderCompID|56=_TargetCompID|34=38|10=253|21=1|100=SMARTO|40=2|47=I|55=GPRE  160616C00040000|54=1|38=10|115=PCUS|44=0.25|1=TEST|60=20141103-18:14:11.085|311=GPRE|202=40.00|77=C|201=1|167=OPT|200=201606|205=16|59=0|10=004| 
12:17:28.916532 5616 FixParser.cpp:42 `Incoming Fix len 245: 8=FIX.4.2|9=222|35=F|52=20141103-18:17:28.472|49=_SenderCompID|56=_TargetCompID|34=39|11=701.0|41=701|60=20141103-18:17:28.472|55=SLV|38=50|100=AMEXO|1=TEST|55=SLV   170616C00055000|202=55.00|201=1|200=201706|167=OPT|205=16|115=PCUS|54=1|10=028|=201606|205=16|59=0|10=004| 
12:17:28.919443 5616 FixParser.cpp:42 `Incoming Fix len 246: 8=FIX.4.2|9=223|35=F|52=20141103-18:17:28.475|49=_SenderCompID|56=_TargetCompID|34=40|11=801.0|41=801|60=20141103-18:17:28.475|55=SLV|38=25|100=SMARTO|1=TEST|55=SLV   170616C00055000|202=55.00|201=1|200=201706|167=OPT|205=16|115=PCUS|54=2|10=124|201606|205=16|59=0|10=004| 
12:17:33.051616 5616 ReadAndLogicThread.cpp:493 Outgoing FIX len 88: 8=FIX.4.2|9=065|35=8|52=20141103-18:17:33.608|49=XXXX|56=YYYY|34=18|11=701|150=4|10=074| 
12:17:35.834746 5616 ReadAndLogicThread.cpp:493 Outgoing FIX len 88: 8=FIX.4.2|9=065|35=8|52=20141103-18:17:35.391|49=XXXX|56=YYYY|34=19|11=801|150=4|10=077| 
12:17:35.838793 5616 FixParser.cpp:42 `Incoming Fix len 272: 8=FIX.4.2|9=249|35=D|52=20141103-18:17:35.395|49=_SenderCompID|56=_TargetCompID|34=41|11=1001|21=1|100=SMARTO|40=2|47=I|55=SLV   170616C00055000|54=2|38=25|115=PCUS|44=0.40|1=TEST|60=20141103-18:17:35.395|311=SLV|202=55.00|77=C|201=1|167=OPT|200=201706|205=16|59=0|10=006| 
12:17:35.839717 5616 ReadAndLogicThread.cpp:493 Outgoing FIX len 89: 8=FIX.4.2|9=066|35=8|52=20141103-18:17:35.396|49=XXXX|56=YYYY|34=20|11=1001|150=0|10=112| 
12:17:43.491990 5616 ReadAndLogicThread.cpp:493 Outgoing FIX len 110: 8=FIX.4.2|9=087|35=8|52=20141103-18:17:43.049|49=XXXX|56=YYYY|34=21|11=1001|150=2|32=25|31=0.40|9999=1|10=049| 
12:18:05.789816 5616 FixParser.cpp:42 `Incoming Fix len 93: 8=FIX.4.2|9=070|35=0|52=20141103-18:18:05.346|49=_SenderCompID|56=_TargetCompID|34=42|10=244||21=1|100=SMARTO|40=2|47=I|55=SLV   170616C00055000|54=2|38=25|115=PCUS|44=0.40|1=TEST|60=20141103-18:17:35.395|311=SLV|202=55.00|77=C|201=1|167=OPT|200=201706|205=16|59=0|10=006| 
12:18:29.585678 5616 ReadAndLogicThread.cpp:493 Outgoing FIX len 101: 8=FIX.4.2|9=078|35=8|52=20141103-18:18:29.143|49=XXXX|56=YYYY|34=22|11=901|150=1|32=5|31=0.25|10=135| 
12:18:30.369739 5616 ReadAndLogicThread.cpp:493 Outgoing FIX len 101: 8=FIX.4.2|9=078|35=8|52=20141103-18:18:30.927|49=XXXX|56=YYYY|34=23|11=901|150=2|32=5|31=0.25|10=139| 
12:18:35.739890 5616 FixParser.cpp:42 `Incoming Fix len 93: 8=FIX.4.2|9=070|35=0|52=20141103-18:18:35.297|49=_SenderCompID|56=_TargetCompID|34=43|10=253||21=1|100=SMARTO|40=2|47=I|55=SLV   170616C00055000|54=2|38=25|115=PCUS|44=0.40|1=TEST|60=20141103-18:17:35.395|311=SLV|202=55.00|77=C|201=1|167=OPT|200=201706|205=16|59=0|10=006| 
12:19:05.692045 5616 FixParser.cpp:42 `Incoming Fix len 93: 8=FIX.4.2|9=070|35=0|52=20141103-18:19:05.249|49=_SenderCompID|56=_TargetCompID|34=44|10=249||21=1|100=SMARTO|40=2|47=I|55=SLV   170616C00055000|54=2|38=25|115=PCUS|44=0.40|1=TEST|60=20141103-18:17:35.395|311=SLV|202=55.00|77=C|201=1|167=OPT|200=201706|205=16|59=0|10=006| 
12:19:35.642188 5616 FixParser.cpp:42 `Incoming Fix len 93: 8=FIX.4.2|9=070|35=0|52=20141103-18:19:35.201|49=_SenderCompID|56=_TargetCompID|34=45|10=241||21=1|100=SMARTO|40=2|47=I|55=SLV   170616C00055000|54=2|38=25|115=PCUS|44=0.40|1=TEST|60=20141103-18:17:35.395|311=SLV|202=55.00|77=C|201=1|167=OPT|200=201706|205=16|59=0|10=006| 
12:20:05.593313 5616 FixParser.cpp:42 `Incoming Fix len 93: 8=FIX.4.2|9=070|35=0|52=20141103-18:20:05.153|49=_SenderCompID|56=_TargetCompID|34=46|10=237||21=1|100=SMARTO|40=2|47=I|55=SLV   170616C00055000|54=2|38=25|115=PCUS|44=0.40|1=TEST|60=20141103-18:17:35.395|311=SLV|202=55.00|77=C|201=1|167=OPT|200=201706|205=16|59=0|10=006| 
12:20:35.545321 5616 FixParser.cpp:42 `Incoming Fix len 93: 8=FIX.4.2|9=070|35=0|52=20141103-18:20:35.104|49=_SenderCompID|56=_TargetCompID|34=47|10=237||21=1|100=SMARTO|40=2|47=I|55=SLV   170616C00055000|54=2|38=25|115=PCUS|44=0.40|1=TEST|60=20141103-18:17:35.395|311=SLV|202=55.00|77=C|201=1|167=OPT|200=201706|205=16|59=0|10=006| 
12:21:05.496426 5616 FixParser.cpp:42 `Incoming Fix len 93: 8=FIX.4.2|9=070|35=0|52=20141103-18:21:05.056|49=_SenderCompID|56=_TargetCompID|34=48|10=242||21=1|100=SMARTO|40=2|47=I|55=SLV   170616C00055000|54=2|38=25|115=PCUS|44=0.40|1=TEST|60=20141103-18:17:35.395|311=SLV|202=55.00|77=C|201=1|167=OPT|200=201706|205=16|59=0|10=006| 
12:21:35.447587 5616 FixParser.cpp:42 `Incoming Fix len 93: 8=FIX.4.2|9=070|35=0|52=20141103-18:21:35.008|49=_SenderCompID|56=_TargetCompID|34=49|10=243||21=1|100=SMARTO|40=2|47=I|55=SLV   170616C00055000|54=2|38=25|115=PCUS|44=0.40|1=TEST|60=20141103-18:17:35.395|311=SLV|202=55.00|77=C|201=1|167=OPT|200=201706|205=16|59=0|10=006| 
12:22:04.396623 5616 FixParser.cpp:42 `Incoming Fix len 93: 8=FIX.4.2|9=070|35=0|52=20141103-18:22:04.959|49=_SenderCompID|56=_TargetCompID|34=50|10=247||21=1|100=SMARTO|40=2|47=I|55=SLV   170616C00055000|54=2|38=25|115=PCUS|44=0.40|1=TEST|60=20141103-18:17:35.395|311=SLV|202=55.00|77=C|201=1|167=OPT|200=201706|205=16|59=0|10=006| 
12:22:34.349727 5616 FixParser.cpp:42 `Incoming Fix len 93: 8=FIX.4.2|9=070|35=0|52=20141103-18:22:34.911|49=_SenderCompID|56=_TargetCompID|34=51|10=239||21=1|100=SMARTO|40=2|47=I|55=SLV   170616C00055000|54=2|38=25|115=PCUS|44=0.40|1=TEST|60=20141103-18:17:35.395|311=SLV|202=55.00|77=C|201=1|167=OPT|200=201706|205=16|59=0|10=006| 
12:23:04.299821 5616 FixParser.cpp:42 `Incoming Fix len 93: 8=FIX.4.2|9=070|35=0|52=20141103-18:23:04.863|49=_SenderCompID|56=_TargetCompID|34=52|10=244||21=1|100=SMARTO|40=2|47=I|55=SLV   170616C00055000|54=2|38=25|115=PCUS|44=0.40|1=TEST|60=20141103-18:17:35.395|311=SLV|202=55.00|77=C|201=1|167=OPT|200=201706|205=16|59=0|10=006| 
12:23:34.251965 5616 FixParser.cpp:42 `Incoming Fix len 93: 8=FIX.4.2|9=070|35=0|52=20141103-18:23:34.815|49=_SenderCompID|56=_TargetCompID|34=53|10=245||21=1|100=SMARTO|40=2|47=I|55=SLV   170616C00055000|54=2|38=25|115=PCUS|44=0.40|1=TEST|60=20141103-18:17:35.395|311=SLV|202=55.00|77=C|201=1|167=OPT|200=201706|205=16|59=0|10=006| 
12:24:04.137898 5616 FixParser.cpp:42 `Incoming Fix len 246: 8=FIX.4.2|9=223|35=F|52=20141103-18:24:04.701|49=_SenderCompID|56=_TargetCompID|34=54|11=401.0|41=401|60=20141103-18:24:04.701|55=GPRE|38=50|100=AMEXO|1=TEST|55=GPRE  160616C00040000|202=40.00|201=1|200=201606|167=OPT|205=16|115=PCUS|54=1|10=062|201706|205=16|59=0|10=006| 
12:24:11.489261 5616 ReadAndLogicThread.cpp:493 Outgoing FIX len 88: 8=FIX.4.2|9=065|35=8|52=20141103-18:24:11.054|49=XXXX|56=YYYY|34=24|11=401|150=4|10=057| 
12:24:34.088038 5616 FixParser.cpp:42 `Incoming Fix len 93: 8=FIX.4.2|9=070|35=0|52=20141103-18:24:34.652|49=_SenderCompID|56=_TargetCompID|34=55|10=247|0|41=401|60=20141103-18:24:04.701|55=GPRE|38=50|100=AMEXO|1=TEST|55=GPRE  160616C00040000|202=40.00|201=1|200=201606|167=OPT|205=16|115=PCUS|54=1|10=062|201706|205=16|59=0|10=006| 
12:25:04.038238 5616 FixParser.cpp:42 `Incoming Fix len 93: 8=FIX.4.2|9=070|35=0|52=20141103-18:25:04.604|49=_SenderCompID|56=_TargetCompID|34=56|10=243|0|41=401|60=20141103-18:24:04.701|55=GPRE|38=50|100=AMEXO|1=TEST|55=GPRE  160616C00040000|202=40.00|201=1|200=201606|167=OPT|205=16|115=PCUS|54=1|10=062|201706|205=16|59=0|10=006| 
12:25:34.989317 5616 FixParser.cpp:42 `Incoming Fix len 93: 8=FIX.4.2|9=070|35=0|52=20141103-18:25:34.556|49=_SenderCompID|56=_TargetCompID|34=57|10=253|0|41=401|60=20141103-18:24:04.701|55=GPRE|38=50|100=AMEXO|1=TEST|55=GPRE  160616C00040000|202=40.00|201=1|200=201606|167=OPT|205=16|115=PCUS|54=1|10=062|201706|205=16|59=0|10=006| 
12:25:44.545513 5616 FixParser.cpp:42 `Incoming Fix len 246: 8=FIX.4.2|9=223|35=F|52=20141103-18:25:44.111|49=_SenderCompID|56=_TargetCompID|34=58|11=501.0|41=501|60=20141103-18:25:44.111|55=GPRE|38=50|100=AMEXO|1=TEST|55=GPRE  160616C00040000|202=40.00|201=1|200=201606|167=OPT|205=16|115=PCUS|54=2|10=069|201706|205=16|59=0|10=006| 
12:25:46.327586 5616 ReadAndLogicThread.cpp:493 Outgoing FIX len 88: 8=FIX.4.2|9=065|35=8|52=20141103-18:25:46.894|49=XXXX|56=YYYY|34=25|11=501|150=4|10=080| 
12:26:14.495682 5616 FixParser.cpp:42 `Incoming Fix len 93: 8=FIX.4.2|9=070|35=0|52=20141103-18:26:14.063|49=_SenderCompID|56=_TargetCompID|34=59|10=247|0|41=501|60=20141103-18:25:44.111|55=GPRE|38=50|100=AMEXO|1=TEST|55=GPRE  160616C00040000|202=40.00|201=1|200=201606|167=OPT|205=16|115=PCUS|54=2|10=069|201706|205=16|59=0|10=006| 
12:26:44.446838 5616 FixParser.cpp:42 `Incoming Fix len 93: 8=FIX.4.2|9=070|35=0|52=20141103-18:26:44.015|49=_SenderCompID|56=_TargetCompID|34=60|10=239|0|41=501|60=20141103-18:25:44.111|55=GPRE|38=50|100=AMEXO|1=TEST|55=GPRE  160616C00040000|202=40.00|201=1|200=201606|167=OPT|205=16|115=PCUS|54=2|10=069|201706|205=16|59=0|10=006| 
12:27:08.592631 5616 FixParser.cpp:42 `Incoming Fix len 272: 8=FIX.4.2|9=249|35=D|52=20141120-18:27:08.237|49=_SenderCompID|56=_TargetCompID|34=61|11=1101|21=1|100=AMEXO|40=2|47=I|55=SDRL  150515C00060000|54=2|38=55|115=PCUS|44=0.80|1=TEST|60=20141120-18:27:08.237|311=SDRL|202=60.00|77=O|201=1|167=OPT|200=201505|205=15|59=0|10=006| 
12:27:08.593672 5616 ReadAndLogicThread.cpp:493 Outgoing FIX len 89: 8=FIX.4.2|9=066|35=8|52=20141120-18:27:08.239|49=XXXX|56=YYYY|34=26|11=1101|150=0|10=115| 
12:27:38.542802 5616 FixParser.cpp:42 `Incoming Fix len 93: 8=FIX.4.2|9=070|35=0|52=20141120-18:27:38.188|49=_SenderCompID|56=_TargetCompID|34=62|10=255||21=1|100=AMEXO|40=2|47=I|55=SDRL  150515C00060000|54=2|38=55|115=PCUS|44=0.80|1=TEST|60=20141120-18:27:08.237|311=SDRL|202=60.00|77=O|201=1|167=OPT|200=201505|205=15|59=0|10=006| 
12:28:08.494859 5616 FixParser.cpp:42 `Incoming Fix len 93: 8=FIX.4.2|9=070|35=0|52=20141120-18:28:08.140|49=_SenderCompID|56=_TargetCompID|34=63|10=242||21=1|100=AMEXO|40=2|47=I|55=SDRL  150515C00060000|54=2|38=55|115=PCUS|44=0.80|1=TEST|60=20141120-18:27:08.237|311=SDRL|202=60.00|77=O|201=1|167=OPT|200=201505|205=15|59=0|10=006| 
12:28:22.290402 5616 ReadAndLogicThread.cpp:493 Outgoing FIX len 103: 8=FIX.4.2|9=080|35=8|52=20141120-18:28:22.937|49=XXXX|56=YYYY|34=27|11=1101|150=1|32=10|31=0.80|10=223| 
12:28:22.294506 5616 FixParser.cpp:42 `Incoming Fix len 272: 8=FIX.4.2|9=249|35=D|52=20141120-18:28:22.941|49=_SenderCompID|56=_TargetCompID|34=64|11=1201|21=1|100=CBOEO|40=2|47=I|55=SDRL  150515C00060000|54=1|38=10|115=PCUS|44=0.75|1=TEST|60=20141120-18:28:22.941|311=SDRL|202=60.00|77=C|201=1|167=OPT|200=201505|205=15|59=0|10=228| 
12:28:22.295385 5616 ReadAndLogicThread.cpp:493 Outgoing FIX len 89: 8=FIX.4.2|9=066|35=8|52=20141120-18:28:22.942|49=XXXX|56=YYYY|34=28|11=1201|150=0|10=116| 
12:28:26.770006 5616 ReadAndLogicThread.cpp:493 Outgoing FIX len 102: 8=FIX.4.2|9=079|35=8|52=20141120-18:28:26.416|49=XXXX|56=YYYY|34=29|11=1101|150=1|32=5|31=0.80|10=185| 
12:28:39.787142 5616 FixParser.cpp:42 `Incoming Fix len 248: 8=FIX.4.2|9=225|35=F|52=20141120-18:28:39.434|49=_SenderCompID|56=_TargetCompID|34=65|11=1101.0|41=1101|60=20141120-18:28:39.434|55=SDRL|38=55|100=AMEXO|1=TEST|55=SDRL  150515C00060000|202=60.00|201=1|200=201505|167=OPT|205=15|115=PCUS|54=2|10=204|1505|205=15|59=0|10=228| 
12:28:39.790156 5616 FixParser.cpp:42 `Incoming Fix len 248: 8=FIX.4.2|9=225|35=F|52=20141120-18:28:39.437|49=_SenderCompID|56=_TargetCompID|34=66|11=1201.0|41=1201|60=20141120-18:28:39.437|55=SDRL|38=10|100=CBOEO|1=TEST|55=SDRL  150515C00060000|202=60.00|201=1|200=201505|167=OPT|205=15|115=PCUS|54=1|10=185|1505|205=15|59=0|10=228| 
12:29:09.741043 5616 FixParser.cpp:42 `Incoming Fix len 93: 8=FIX.4.2|9=070|35=0|52=20141120-18:29:09.388|49=_SenderCompID|56=_TargetCompID|34=67|10=006|.0|41=1201|60=20141120-18:28:39.437|55=SDRL|38=10|100=CBOEO|1=TEST|55=SDRL  150515C00060000|202=60.00|201=1|200=201505|167=OPT|205=15|115=PCUS|54=1|10=185|1505|205=15|59=0|10=228| 
12:29:39.690257 5616 FixParser.cpp:42 `Incoming Fix len 93: 8=FIX.4.2|9=070|35=0|52=20141120-18:29:39.339|49=_SenderCompID|56=_TargetCompID|34=68|10=006|.0|41=1201|60=20141120-18:28:39.437|55=SDRL|38=10|100=CBOEO|1=TEST|55=SDRL  150515C00060000|202=60.00|201=1|200=201505|167=OPT|205=15|115=PCUS|54=1|10=185|1505|205=15|59=0|10=228| 
12:30:09.643245 5616 FixParser.cpp:42 `Incoming Fix len 93: 8=FIX.4.2|9=070|35=0|52=20141120-18:30:09.291|49=_SenderCompID|56=_TargetCompID|34=69|10=249|.0|41=1201|60=20141120-18:28:39.437|55=SDRL|38=10|100=CBOEO|1=TEST|55=SDRL  150515C00060000|202=60.00|201=1|200=201505|167=OPT|205=15|115=PCUS|54=1|10=185|1505|205=15|59=0|10=228| 
12:30:39.593448 5616 FixParser.cpp:42 `Incoming Fix len 93: 8=FIX.4.2|9=070|35=0|52=20141120-18:30:39.243|49=_SenderCompID|56=_TargetCompID|34=70|10=241|.0|41=1201|60=20141120-18:28:39.437|55=SDRL|38=10|100=CBOEO|1=TEST|55=SDRL  150515C00060000|202=60.00|201=1|200=201505|167=OPT|205=15|115=PCUS|54=1|10=185|1505|205=15|59=0|10=228| 
12:31:09.544413 5616 FixParser.cpp:42 `Incoming Fix len 93: 8=FIX.4.2|9=070|35=0|52=20141120-18:31:09.194|49=_SenderCompID|56=_TargetCompID|34=71|10=245|.0|41=1201|60=20141120-18:28:39.437|55=SDRL|38=10|100=CBOEO|1=TEST|55=SDRL  150515C00060000|202=60.00|201=1|200=201505|167=OPT|205=15|115=PCUS|54=1|10=185|1505|205=15|59=0|10=228| 
12:31:39.494569 5616 FixParser.cpp:42 `Incoming Fix len 93: 8=FIX.4.2|9=070|35=0|52=20141120-18:31:39.145|49=_SenderCompID|56=_TargetCompID|34=72|10=245|.0|41=1201|60=20141120-18:28:39.437|55=SDRL|38=10|100=CBOEO|1=TEST|55=SDRL  150515C00060000|202=60.00|201=1|200=201505|167=OPT|205=15|115=PCUS|54=1|10=185|1505|205=15|59=0|10=228| 
12:32:09.446637 5616 FixParser.cpp:42 `Incoming Fix len 93: 8=FIX.4.2|9=070|35=0|52=20141120-18:32:09.097|49=_SenderCompID|56=_TargetCompID|34=73|10=250|.0|41=1201|60=20141120-18:28:39.437|55=SDRL|38=10|100=CBOEO|1=TEST|55=SDRL  150515C00060000|202=60.00|201=1|200=201505|167=OPT|205=15|115=PCUS|54=1|10=185|1505|205=15|59=0|10=228| 
12:32:21.355088 5616 ReadAndLogicThread.cpp:493 Outgoing FIX len 89: 8=FIX.4.2|9=066|35=8|52=20141120-18:32:21.007|49=XXXX|56=YYYY|34=30|11=1101|150=4|10=098| 
12:32:22.298175 5616 ReadAndLogicThread.cpp:493 Outgoing FIX len 89: 8=FIX.4.2|9=066|35=8|52=20141120-18:32:22.950|49=XXXX|56=YYYY|34=31|11=1201|150=4|10=108| 
12:32:22.300293 5616 FixParser.cpp:42 `Incoming Fix len 273: 8=FIX.4.2|9=250|35=D|52=20141120-18:32:22.952|49=_SenderCompID|56=_TargetCompID|34=74|11=1301|21=1|100=SMARTO|40=2|47=I|55=SDRL  150515C00060000|54=1|38=15|115=PCUS|44=0.80|1=TEST|60=20141120-18:32:22.952|311=SDRL|202=60.00|77=C|201=1|167=OPT|200=201505|205=15|59=0|10=071| 
12:32:22.301175 5616 ReadAndLogicThread.cpp:493 Outgoing FIX len 89: 8=FIX.4.2|9=066|35=8|52=20141120-18:32:22.953|49=XXXX|56=YYYY|34=32|11=1301|150=0|10=109| 
12:32:52.251300 5616 FixParser.cpp:42 `Incoming Fix len 93: 8=FIX.4.2|9=070|35=0|52=20141120-18:32:52.904|49=_SenderCompID|56=_TargetCompID|34=75|10=247||21=1|100=SMARTO|40=2|47=I|55=SDRL  150515C00060000|54=1|38=15|115=PCUS|44=0.80|1=TEST|60=20141120-18:32:22.952|311=SDRL|202=60.00|77=C|201=1|167=OPT|200=201505|205=15|59=0|10=071| 
12:32:56.490318 5616 ReadAndLogicThread.cpp:493 Outgoing FIX len 103: 8=FIX.4.2|9=080|35=8|52=20141120-18:32:56.143|49=XXXX|56=YYYY|34=33|11=1301|150=2|32=15|31=0.80|10=219| 
12:33:01.291544 5616 FixParser.cpp:42 `Incoming Fix len 272: 8=FIX.4.2|9=249|35=D|52=20141120-18:33:01.943|49=_SenderCompID|56=_TargetCompID|34=76|11=1401|21=1|100=AMEXO|40=2|47=I|55=SDRL  150515C00060000|54=2|38=55|115=PCUS|44=0.80|1=TEST|60=20141120-18:33:01.943|311=SDRL|202=60.00|77=O|201=1|167=OPT|200=201505|205=15|59=0|10=003|| 
12:33:01.292577 5616 ReadAndLogicThread.cpp:493 Outgoing FIX len 89: 8=FIX.4.2|9=066|35=8|52=20141120-18:33:01.945|49=XXXX|56=YYYY|34=34|11=1401|150=0|10=111| 
12:33:31.242679 5616 FixParser.cpp:42 `Incoming Fix len 93: 8=FIX.4.2|9=070|35=0|52=20141120-18:33:31.895|49=_SenderCompID|56=_TargetCompID|34=77|10=000||21=1|100=AMEXO|40=2|47=I|55=SDRL  150515C00060000|54=2|38=55|115=PCUS|44=0.80|1=TEST|60=20141120-18:33:01.943|311=SDRL|202=60.00|77=O|201=1|167=OPT|200=201505|205=15|59=0|10=003|| 
12:33:40.326969 5616 FixParser.cpp:42 `Incoming Fix len 272: 8=FIX.4.2|9=249|35=D|52=20141120-18:33:40.979|49=_SenderCompID|56=_TargetCompID|34=78|11=1501|21=1|100=AMEXO|40=2|47=I|55=SDRL  150515C00060000|54=1|38=55|115=PCUS|44=0.70|1=TEST|60=20141120-18:33:40.979|311=SDRL|202=60.00|77=O|201=1|167=OPT|200=201505|205=15|59=0|10=028|| 
12:33:40.327999 5616 ReadAndLogicThread.cpp:493 Outgoing FIX len 89: 8=FIX.4.2|9=066|35=8|52=20141120-18:33:40.981|49=XXXX|56=YYYY|34=35|11=1501|150=0|10=116| 
12:34:06.743882 5616 ReadAndLogicThread.cpp:493 Outgoing FIX len 102: 8=FIX.4.2|9=079|35=8|52=20141120-18:34:06.398|49=XXXX|56=YYYY|34=36|11=1501|150=1|32=5|31=0.70|10=190| 
12:34:09.423018 5616 ReadAndLogicThread.cpp:493 Outgoing FIX len 102: 8=FIX.4.2|9=079|35=8|52=20141120-18:34:09.077|49=XXXX|56=YYYY|34=37|11=1501|150=1|32=5|31=0.70|10=188| 
12:34:09.427104 5616 FixParser.cpp:42 `Incoming Fix len 272: 8=FIX.4.2|9=249|35=D|52=20141120-18:34:09.080|49=_SenderCompID|56=_TargetCompID|34=79|11=1601|21=1|100=CBOEO|40=2|47=I|55=SDRL  150515C00060000|54=2|38=10|115=PCUS|44=0.75|1=TEST|60=20141120-18:34:09.080|311=SDRL|202=60.00|77=C|201=1|167=OPT|200=201505|205=15|59=0|10=231|| 
12:34:09.427989 5616 ReadAndLogicThread.cpp:493 Outgoing FIX len 89: 8=FIX.4.2|9=066|35=8|52=20141120-18:34:09.082|49=XXXX|56=YYYY|34=38|11=1601|150=0|10=118| 
12:34:35.959000 5616 ReadAndLogicThread.cpp:493 Outgoing FIX len 103: 8=FIX.4.2|9=080|35=8|52=20141120-18:34:35.614|49=XXXX|56=YYYY|34=39|11=1601|150=2|32=10|31=0.75|10=229| 
12:34:39.376154 5616 FixParser.cpp:42 `Incoming Fix len 93: 8=FIX.4.2|9=070|35=0|52=20141120-18:34:39.031|49=_SenderCompID|56=_TargetCompID|34=80|10=241||21=1|100=CBOEO|40=2|47=I|55=SDRL  150515C00060000|54=2|38=10|115=PCUS|44=0.75|1=TEST|60=20141120-18:34:09.080|311=SDRL|202=60.00|77=C|201=1|167=OPT|200=201505|205=15|59=0|10=231|| 
12:35:08.329242 5616 FixParser.cpp:42 `Incoming Fix len 93: 8=FIX.4.2|9=070|35=0|52=20141120-18:35:08.983|49=_SenderCompID|56=_TargetCompID|34=81|10=255||21=1|100=CBOEO|40=2|47=I|55=SDRL  150515C00060000|54=2|38=10|115=PCUS|44=0.75|1=TEST|60=20141120-18:34:09.080|311=SDRL|202=60.00|77=C|201=1|167=OPT|200=201505|205=15|59=0|10=231|| 
12:35:38.279246 5616 FixParser.cpp:42 `Incoming Fix len 93: 8=FIX.4.2|9=070|35=0|52=20141120-18:35:38.934|49=_SenderCompID|56=_TargetCompID|34=82|10=255||21=1|100=CBOEO|40=2|47=I|55=SDRL  150515C00060000|54=2|38=10|115=PCUS|44=0.75|1=TEST|60=20141120-18:34:09.080|311=SDRL|202=60.00|77=C|201=1|167=OPT|200=201505|205=15|59=0|10=231|| 
12:36:08.228495 5616 FixParser.cpp:42 `Incoming Fix len 93: 8=FIX.4.2|9=070|35=0|52=20141120-18:36:08.885|49=_SenderCompID|56=_TargetCompID|34=83|10=003||21=1|100=CBOEO|40=2|47=I|55=SDRL  150515C00060000|54=2|38=10|115=PCUS|44=0.75|1=TEST|60=20141120-18:34:09.080|311=SDRL|202=60.00|77=C|201=1|167=OPT|200=201505|205=15|59=0|10=231|| 
12:36:31.782513 5616 FixParser.cpp:42 `Incoming Fix len 270: 8=FIX.4.2|9=247|35=D|52=20141120-18:36:31.439|49=_SenderCompID|56=_TargetCompID|34=84|11=1701|21=1|100=MIAX|40=2|47=I|55=WTW   160515C00080000|54=1|38=30|115=PCUS|44=0.20|1=TEST|60=20141120-18:36:31.439|311=WTW|202=80.00|77=O|201=1|167=OPT|200=201605|205=15|59=0|10=118|1|| 
12:36:31.783224 5616 ReadAndLogicThread.cpp:493 Outgoing FIX len 89: 8=FIX.4.2|9=066|35=8|52=20141120-18:36:31.440|49=XXXX|56=YYYY|34=40|11=1701|150=0|10=107| 
12:36:58.714285 5616 ReadAndLogicThread.cpp:493 Outgoing FIX len 103: 8=FIX.4.2|9=080|35=8|52=20141120-18:36:58.372|49=XXXX|56=YYYY|34=41|11=1401|150=1|32=10|31=0.80|10=223| 
12:36:58.716249 5616 FixParser.cpp:42 `Incoming Fix len 272: 8=FIX.4.2|9=249|35=D|52=20141120-18:36:58.374|49=_SenderCompID|56=_TargetCompID|34=85|11=1801|21=1|100=CBOEO|40=2|47=I|55=SDRL  150515C00060000|54=1|38=10|115=PCUS|44=0.75|1=TEST|60=20141120-18:36:58.374|311=SDRL|202=60.00|77=C|201=1|167=OPT|200=201505|205=15|59=0|10=253|| 
12:36:58.717172 5616 ReadAndLogicThread.cpp:493 Outgoing FIX len 89: 8=FIX.4.2|9=066|35=8|52=20141120-18:36:58.375|49=XXXX|56=YYYY|34=42|11=1801|150=0|10=126| 
12:37:28.668280 5616 FixParser.cpp:42 `Incoming Fix len 93: 8=FIX.4.2|9=070|35=0|52=20141120-18:37:28.325|49=_SenderCompID|56=_TargetCompID|34=86|10=254||21=1|100=CBOEO|40=2|47=I|55=SDRL  150515C00060000|54=1|38=10|115=PCUS|44=0.75|1=TEST|60=20141120-18:36:58.374|311=SDRL|202=60.00|77=C|201=1|167=OPT|200=201505|205=15|59=0|10=253|| 
12:37:44.890035 5616 ReadAndLogicThread.cpp:493 Outgoing FIX len 103: 8=FIX.4.2|9=080|35=8|52=20141120-18:37:44.548|49=XXXX|56=YYYY|34=43|11=1701|150=2|32=30|31=0.20|10=226| 
12:37:44.894091 5616 FixParser.cpp:42 `Incoming Fix len 542: 8=FIX.4.2|9=249|35=D|52=20141120-18:37:44.552|49=_SenderCompID|56=_TargetCompID|34=87|11=1901|21=1|100=SMARTO|40=2|47=I|55=WTW   160515C00080000|54=2|38=30|115=PCUS|44=0.25|1=TEST|60=20141120-18:37:44.552|311=WTW|202=80.00|77=C|201=1|167=OPT|200=201605|205=15|59=0|10=032|8=FIX.4.2|9=247|35=D|52=20141120-18:37:44.552|49=_SenderCompID|56=_TargetCompID|34=88|11=2001|21=1|100=MIAX|40=2|47=I|55=WTW   160515C00080000|54=1|38=30|115=PCUS|44=0.20|1=TEST|60=20141120-18:37:44.552|311=WTW|202=80.00|77=O|201=1|167=OPT|200=201605|205=15|59=0|10=118| 
12:37:44.894116 5616 FixParser.cpp:42 `Incoming Fix len 270: 8=FIX.4.2|9=247|35=D|52=20141120-18:37:44.552|49=_SenderCompID|56=_TargetCompID|34=88|11=2001|21=1|100=MIAX|40=2|47=I|55=WTW   160515C00080000|54=1|38=30|115=PCUS|44=0.20|1=TEST|60=20141120-18:37:44.552|311=WTW|202=80.00|77=O|201=1|167=OPT|200=201605|205=15|59=0|10=118| 
12:37:44.895104 5616 ReadAndLogicThread.cpp:493 Outgoing FIX len 89: 8=FIX.4.2|9=066|35=8|52=20141120-18:37:44.553|49=XXXX|56=YYYY|34=44|11=1901|150=0|10=123| 
12:37:44.895174 5616 ReadAndLogicThread.cpp:493 Outgoing FIX len 89: 8=FIX.4.2|9=066|35=8|52=20141120-18:37:44.553|49=XXXX|56=YYYY|34=45|11=2001|150=0|10=116| 
12:37:55.866208 5616 ReadAndLogicThread.cpp:493 Outgoing FIX len 103: 8=FIX.4.2|9=080|35=8|52=20141120-18:37:55.525|49=XXXX|56=YYYY|34=46|11=1401|150=1|32=10|31=0.80|10=226| 
12:37:55.870202 5616 FixParser.cpp:42 `Incoming Fix len 272: 8=FIX.4.2|9=249|35=D|52=20141120-18:37:55.528|49=_SenderCompID|56=_TargetCompID|34=89|11=2101|21=1|100=CBOEO|40=2|47=I|55=SDRL  150515C00060000|54=1|38=10|115=PCUS|44=0.75|1=TEST|60=20141120-18:37:55.528|311=SDRL|202=60.00|77=C|201=1|167=OPT|200=201505|205=15|59=0|10=249|8=FIX.4.2|9=247|35=D|52=20141120-18:37:44.552|49=_SenderCompID|56=_TargetCompID|34=88|11=2001|21=1|100=MIAX|40=2|47=I|55=WTW   160515C00080000|54=1|38=30|115=PCUS|44=0.20|1=TEST|60=20141120-18:37:44.552|311=WTW|202=80.00|77=O|201=1|167=OPT|200=201605|205=15|59=0|10=118| 
12:37:55.871217 5616 ReadAndLogicThread.cpp:493 Outgoing FIX len 89: 8=FIX.4.2|9=066|35=8|52=20141120-18:37:55.530|49=XXXX|56=YYYY|34=47|11=2101|150=0|10=116| 
12:38:09.737781 5616 ReadAndLogicThread.cpp:493 Outgoing FIX len 103: 8=FIX.4.2|9=080|35=8|52=20141120-18:38:09.397|49=XXXX|56=YYYY|34=48|11=1401|150=1|32=10|31=0.80|10=235| 
12:38:09.741680 5616 FixParser.cpp:42 `Incoming Fix len 272: 8=FIX.4.2|9=249|35=D|52=20141120-18:38:09.400|49=_SenderCompID|56=_TargetCompID|34=90|11=2201|21=1|100=CBOEO|40=2|47=I|55=SDRL  150515C00060000|54=1|38=10|115=PCUS|44=0.75|1=TEST|60=20141120-18:38:09.400|311=SDRL|202=60.00|77=C|201=1|167=OPT|200=201505|205=15|59=0|10=220|8=FIX.4.2|9=247|35=D|52=20141120-18:37:44.552|49=_SenderCompID|56=_TargetCompID|34=88|11=2001|21=1|100=MIAX|40=2|47=I|55=WTW   160515C00080000|54=1|38=30|115=PCUS|44=0.20|1=TEST|60=20141120-18:37:44.552|311=WTW|202=80.00|77=O|201=1|167=OPT|200=201605|205=15|59=0|10=118| 
12:38:09.742713 5616 ReadAndLogicThread.cpp:493 Outgoing FIX len 89: 8=FIX.4.2|9=066|35=8|52=20141120-18:38:09.402|49=XXXX|56=YYYY|34=49|11=2201|150=0|10=117| 
12:38:39.344799 5616 ReadAndLogicThread.cpp:493 Outgoing FIX len 103: 8=FIX.4.2|9=080|35=8|52=20141120-18:38:39.004|49=XXXX|56=YYYY|34=50|11=2201|150=2|32=10|31=0.75|10=220| 
12:38:39.693827 5616 FixParser.cpp:42 `Incoming Fix len 93: 8=FIX.4.2|9=070|35=0|52=20141120-18:38:39.352|49=_SenderCompID|56=_TargetCompID|34=91|10=253||21=1|100=CBOEO|40=2|47=I|55=SDRL  150515C00060000|54=1|38=10|115=PCUS|44=0.75|1=TEST|60=20141120-18:38:09.400|311=SDRL|202=60.00|77=C|201=1|167=OPT|200=201505|205=15|59=0|10=220|8=FIX.4.2|9=247|35=D|52=20141120-18:37:44.552|49=_SenderCompID|56=_TargetCompID|34=88|11=2001|21=1|100=MIAX|40=2|47=I|55=WTW   160515C00080000|54=1|38=30|115=PCUS|44=0.20|1=TEST|60=20141120-18:37:44.552|311=WTW|202=80.00|77=O|201=1|167=OPT|200=201605|205=15|59=0|10=118| 
12:38:41.767873 5616 ReadAndLogicThread.cpp:493 Outgoing FIX len 103: 8=FIX.4.2|9=080|35=8|52=20141120-18:38:41.428|49=XXXX|56=YYYY|34=51|11=2101|150=2|32=10|31=0.75|10=223| 
12:39:09.643995 5616 FixParser.cpp:42 `Incoming Fix len 93: 8=FIX.4.2|9=070|35=0|52=20141120-18:39:09.304|49=_SenderCompID|56=_TargetCompID|34=92|10=249||21=1|100=CBOEO|40=2|47=I|55=SDRL  150515C00060000|54=1|38=10|115=PCUS|44=0.75|1=TEST|60=20141120-18:38:09.400|311=SDRL|202=60.00|77=C|201=1|167=OPT|200=201505|205=15|59=0|10=220|8=FIX.4.2|9=247|35=D|52=20141120-18:37:44.552|49=_SenderCompID|56=_TargetCompID|34=88|11=2001|21=1|100=MIAX|40=2|47=I|55=WTW   160515C00080000|54=1|38=30|115=PCUS|44=0.20|1=TEST|60=20141120-18:37:44.552|311=WTW|202=80.00|77=O|201=1|167=OPT|200=201605|205=15|59=0|10=118| 
12:39:39.595030 5616 FixParser.cpp:42 `Incoming Fix len 93: 8=FIX.4.2|9=070|35=0|52=20141120-18:39:39.255|49=_SenderCompID|56=_TargetCompID|34=93|10=002||21=1|100=CBOEO|40=2|47=I|55=SDRL  150515C00060000|54=1|38=10|115=PCUS|44=0.75|1=TEST|60=20141120-18:38:09.400|311=SDRL|202=60.00|77=C|201=1|167=OPT|200=201505|205=15|59=0|10=220|8=FIX.4.2|9=247|35=D|52=20141120-18:37:44.552|49=_SenderCompID|56=_TargetCompID|34=88|11=2001|21=1|100=MIAX|40=2|47=I|55=WTW   160515C00080000|54=1|38=30|115=PCUS|44=0.20|1=TEST|60=20141120-18:37:44.552|311=WTW|202=80.00|77=O|201=1|167=OPT|200=201605|205=15|59=0|10=118| 
12:39:54.435713 5616 FixParser.cpp:42 `Incoming Fix len 248: 8=FIX.4.2|9=225|35=F|52=20141120-18:39:54.096|49=_SenderCompID|56=_TargetCompID|34=94|11=1901.0|41=1901|60=20141120-18:39:54.096|55=WTW|38=30|100=SMARTO|1=TEST|55=WTW   160515C00080000|202=80.00|201=1|200=201605|167=OPT|205=15|115=PCUS|54=2|10=249|1505|205=15|59=0|10=220|8=FIX.4.2|9=247|35=D|52=20141120-18:37:44.552|49=_SenderCompID|56=_TargetCompID|34=88|11=2001|21=1|100=MIAX|40=2|47=I|55=WTW   160515C00080000|54=1|38=30|115=PCUS|44=0.20|1=TEST|60=20141120-18:37:44.552|311=WTW|202=80.00|77=O|201=1|167=OPT|200=201605|205=15|59=0|10=118| 
12:39:57.565780 5616 ReadAndLogicThread.cpp:493 Outgoing FIX len 89: 8=FIX.4.2|9=066|35=8|52=20141120-18:39:57.227|49=XXXX|56=YYYY|34=52|11=1901|150=4|10=130| 
12:39:57.570186 5616 FixParser.cpp:42 `Incoming Fix len 270: 8=FIX.4.2|9=247|35=D|52=20141120-18:39:57.231|49=_SenderCompID|56=_TargetCompID|34=95|11=2301|21=1|100=ISEO|40=2|47=I|55=WTW   160515C00080000|54=2|38=30|115=PCUS|44=0.25|1=TEST|60=20141120-18:39:57.231|311=WTW|202=80.00|77=C|201=1|167=OPT|200=201605|205=15|59=0|10=114|0|8=FIX.4.2|9=247|35=D|52=20141120-18:37:44.552|49=_SenderCompID|56=_TargetCompID|34=88|11=2001|21=1|100=MIAX|40=2|47=I|55=WTW   160515C00080000|54=1|38=30|115=PCUS|44=0.20|1=TEST|60=20141120-18:37:44.552|311=WTW|202=80.00|77=O|201=1|167=OPT|200=201605|205=15|59=0|10=118| 
12:39:57.570800 5616 ReadAndLogicThread.cpp:493 Outgoing FIX len 89: 8=FIX.4.2|9=066|35=8|52=20141120-18:39:57.232|49=XXXX|56=YYYY|34=53|11=2301|150=0|10=118| 
12:40:09.702115 5616 ReadAndLogicThread.cpp:493 Outgoing FIX len 103: 8=FIX.4.2|9=080|35=8|52=20141120-18:40:09.364|49=XXXX|56=YYYY|34=54|11=2301|150=2|32=30|31=0.25|10=221| 
12:40:27.520748 5616 FixParser.cpp:42 `Incoming Fix len 93: 8=FIX.4.2|9=070|35=0|52=20141120-18:40:27.182|49=_SenderCompID|56=_TargetCompID|34=96|10=249||21=1|100=ISEO|40=2|47=I|55=WTW   160515C00080000|54=2|38=30|115=PCUS|44=0.25|1=TEST|60=20141120-18:39:57.231|311=WTW|202=80.00|77=C|201=1|167=OPT|200=201605|205=15|59=0|10=114|0|8=FIX.4.2|9=247|35=D|52=20141120-18:37:44.552|49=_SenderCompID|56=_TargetCompID|34=88|11=2001|21=1|100=MIAX|40=2|47=I|55=WTW   160515C00080000|54=1|38=30|115=PCUS|44=0.20|1=TEST|60=20141120-18:37:44.552|311=WTW|202=80.00|77=O|201=1|167=OPT|200=201605|205=15|59=0|10=118| 
12:40:51.167897 5616 FixParser.cpp:42 `Incoming Fix len 248: 8=FIX.4.2|9=225|35=F|52=20141120-18:40:51.830|49=_SenderCompID|56=_TargetCompID|34=97|11=1401.0|41=1401|60=20141120-18:40:51.830|55=SDRL|38=55|100=AMEXO|1=TEST|55=SDRL  150515C00060000|202=60.00|201=1|200=201505|167=OPT|205=15|115=PCUS|54=2|10=191|05|205=15|59=0|10=114|0|8=FIX.4.2|9=247|35=D|52=20141120-18:37:44.552|49=_SenderCompID|56=_TargetCompID|34=88|11=2001|21=1|100=MIAX|40=2|47=I|55=WTW   160515C00080000|54=1|38=30|115=PCUS|44=0.20|1=TEST|60=20141120-18:37:44.552|311=WTW|202=80.00|77=O|201=1|167=OPT|200=201605|205=15|59=0|10=118| 
12:40:51.170792 5616 FixParser.cpp:42 `Incoming Fix len 248: 8=FIX.4.2|9=225|35=F|52=20141120-18:40:51.833|49=_SenderCompID|56=_TargetCompID|34=98|11=1801.0|41=1801|60=20141120-18:40:51.833|55=SDRL|38=10|100=CBOEO|1=TEST|55=SDRL  150515C00060000|202=60.00|201=1|200=201505|167=OPT|205=15|115=PCUS|54=1|10=178|05|205=15|59=0|10=114|0|8=FIX.4.2|9=247|35=D|52=20141120-18:37:44.552|49=_SenderCompID|56=_TargetCompID|34=88|11=2001|21=1|100=MIAX|40=2|47=I|55=WTW   160515C00080000|54=1|38=30|115=PCUS|44=0.20|1=TEST|60=20141120-18:37:44.552|311=WTW|202=80.00|77=O|201=1|167=OPT|200=201605|205=15|59=0|10=118| 
12:40:56.356878 5616 ReadAndLogicThread.cpp:493 Outgoing FIX len 89: 8=FIX.4.2|9=066|35=8|52=20141120-18:40:56.019|49=XXXX|56=YYYY|34=55|11=1801|150=4|10=122| 
12:40:56.361054 5616 FixParser.cpp:42 `Incoming Fix len 272: 8=FIX.4.2|9=249|35=D|52=20141120-18:40:56.023|49=_SenderCompID|56=_TargetCompID|34=99|11=2401|21=1|100=CBOEO|40=2|47=I|55=SDRL  150515C00060000|54=1|38=10|115=PCUS|44=0.80|1=TEST|60=20141120-18:40:56.023|311=SDRL|202=60.00|77=C|201=1|167=OPT|200=201505|205=15|59=0|10=219|8=FIX.4.2|9=247|35=D|52=20141120-18:37:44.552|49=_SenderCompID|56=_TargetCompID|34=88|11=2001|21=1|100=MIAX|40=2|47=I|55=WTW   160515C00080000|54=1|38=30|115=PCUS|44=0.20|1=TEST|60=20141120-18:37:44.552|311=WTW|202=80.00|77=O|201=1|167=OPT|200=201605|205=15|59=0|10=118| 
12:40:56.361947 5616 ReadAndLogicThread.cpp:493 Outgoing FIX len 89: 8=FIX.4.2|9=066|35=8|52=20141120-18:40:56.024|49=XXXX|56=YYYY|34=56|11=2401|150=0|10=112| 
12:40:57.316899 5616 ReadAndLogicThread.cpp:493 Outgoing FIX len 89: 8=FIX.4.2|9=066|35=8|52=20141120-18:40:57.979|49=XXXX|56=YYYY|34=57|11=1401|150=4|10=136| 
12:41:15.283586 5616 ReadAndLogicThread.cpp:493 Outgoing FIX len 110: 8=FIX.4.2|9=087|35=8|52=20141120-18:41:15.946|49=XXXX|56=YYYY|34=58|11=2401|150=2|32=10|31=0.80|9999=1|10=063| 
12:41:25.312012 5616 FixParser.cpp:42 `Incoming Fix len 94: 8=FIX.4.2|9=071|35=0|52=20141120-18:41:25.975|49=_SenderCompID|56=_TargetCompID|34=100|10=037|21=1|100=CBOEO|40=2|47=I|55=SDRL  150515C00060000|54=1|38=10|115=PCUS|44=0.80|1=TEST|60=20141120-18:40:56.023|311=SDRL|202=60.00|77=C|201=1|167=OPT|200=201505|205=15|59=0|10=219|8=FIX.4.2|9=247|35=D|52=20141120-18:37:44.552|49=_SenderCompID|56=_TargetCompID|34=88|11=2001|21=1|100=MIAX|40=2|47=I|55=WTW   160515C00080000|54=1|38=30|115=PCUS|44=0.20|1=TEST|60=20141120-18:37:44.552|311=WTW|202=80.00|77=O|201=1|167=OPT|200=201605|205=15|59=0|10=118| 
12:41:55.264031 5616 FixParser.cpp:42 `Incoming Fix len 94: 8=FIX.4.2|9=071|35=0|52=20141120-18:41:55.927|49=_SenderCompID|56=_TargetCompID|34=101|10=038|21=1|100=CBOEO|40=2|47=I|55=SDRL  150515C00060000|54=1|38=10|115=PCUS|44=0.80|1=TEST|60=20141120-18:40:56.023|311=SDRL|202=60.00|77=C|201=1|167=OPT|200=201505|205=15|59=0|10=219|8=FIX.4.2|9=247|35=D|52=20141120-18:37:44.552|49=_SenderCompID|56=_TargetCompID|34=88|11=2001|21=1|100=MIAX|40=2|47=I|55=WTW   160515C00080000|54=1|38=30|115=PCUS|44=0.20|1=TEST|60=20141120-18:37:44.552|311=WTW|202=80.00|77=O|201=1|167=OPT|200=201605|205=15|59=0|10=118| 
12:42:25.215134 5616 FixParser.cpp:42 `Incoming Fix len 94: 8=FIX.4.2|9=071|35=0|52=20141120-18:42:25.878|49=_SenderCompID|56=_TargetCompID|34=102|10=042|21=1|100=CBOEO|40=2|47=I|55=SDRL  150515C00060000|54=1|38=10|115=PCUS|44=0.80|1=TEST|60=20141120-18:40:56.023|311=SDRL|202=60.00|77=C|201=1|167=OPT|200=201505|205=15|59=0|10=219|8=FIX.4.2|9=247|35=D|52=20141120-18:37:44.552|49=_SenderCompID|56=_TargetCompID|34=88|11=2001|21=1|100=MIAX|40=2|47=I|55=WTW   160515C00080000|54=1|38=30|115=PCUS|44=0.20|1=TEST|60=20141120-18:37:44.552|311=WTW|202=80.00|77=O|201=1|167=OPT|200=201605|205=15|59=0|10=118| 
12:42:35.257521 5616 ReadAndLogicThread.cpp:493 Outgoing FIX len 109: 8=FIX.4.2|9=086|35=8|52=20141120-18:42:35.922|49=XXXX|56=YYYY|34=59|11=2001|150=1|32=5|31=0.20|9999=1|10=005| 
12:42:55.166205 5616 FixParser.cpp:42 `Incoming Fix len 94: 8=FIX.4.2|9=071|35=0|52=20141120-18:42:55.830|49=_SenderCompID|56=_TargetCompID|34=103|10=034|21=1|100=CBOEO|40=2|47=I|55=SDRL  150515C00060000|54=1|38=10|115=PCUS|44=0.80|1=TEST|60=20141120-18:40:56.023|311=SDRL|202=60.00|77=C|201=1|167=OPT|200=201505|205=15|59=0|10=219|8=FIX.4.2|9=247|35=D|52=20141120-18:37:44.552|49=_SenderCompID|56=_TargetCompID|34=88|11=2001|21=1|100=MIAX|40=2|47=I|55=WTW   160515C00080000|54=1|38=30|115=PCUS|44=0.20|1=TEST|60=20141120-18:37:44.552|311=WTW|202=80.00|77=O|201=1|167=OPT|200=201605|205=15|59=0|10=118| 
12:43:25.116342 5616 FixParser.cpp:42 `Incoming Fix len 94: 8=FIX.4.2|9=071|35=0|52=20141120-18:43:25.782|49=_SenderCompID|56=_TargetCompID|34=104|10=039|21=1|100=CBOEO|40=2|47=I|55=SDRL  150515C00060000|54=1|38=10|115=PCUS|44=0.80|1=TEST|60=20141120-18:40:56.023|311=SDRL|202=60.00|77=C|201=1|167=OPT|200=201505|205=15|59=0|10=219|8=FIX.4.2|9=247|35=D|52=20141120-18:37:44.552|49=_SenderCompID|56=_TargetCompID|34=88|11=2001|21=1|100=MIAX|40=2|47=I|55=WTW   160515C00080000|54=1|38=30|115=PCUS|44=0.20|1=TEST|60=20141120-18:37:44.552|311=WTW|202=80.00|77=O|201=1|167=OPT|200=201605|205=15|59=0|10=118| 
12:43:55.067343 5616 FixParser.cpp:42 `Incoming Fix len 94: 8=FIX.4.2|9=071|35=0|52=20141120-18:43:55.733|49=_SenderCompID|56=_TargetCompID|34=105|10=039|21=1|100=CBOEO|40=2|47=I|55=SDRL  150515C00060000|54=1|38=10|115=PCUS|44=0.80|1=TEST|60=20141120-18:40:56.023|311=SDRL|202=60.00|77=C|201=1|167=OPT|200=201505|205=15|59=0|10=219|8=FIX.4.2|9=247|35=D|52=20141120-18:37:44.552|49=_SenderCompID|56=_TargetCompID|34=88|11=2001|21=1|100=MIAX|40=2|47=I|55=WTW   160515C00080000|54=1|38=30|115=PCUS|44=0.20|1=TEST|60=20141120-18:37:44.552|311=WTW|202=80.00|77=O|201=1|167=OPT|200=201605|205=15|59=0|10=118| 
12:44:25.018434 5616 FixParser.cpp:42 `Incoming Fix len 94: 8=FIX.4.2|9=071|35=0|52=20141120-18:44:25.684|49=_SenderCompID|56=_TargetCompID|34=106|10=043|21=1|100=CBOEO|40=2|47=I|55=SDRL  150515C00060000|54=1|38=10|115=PCUS|44=0.80|1=TEST|60=20141120-18:40:56.023|311=SDRL|202=60.00|77=C|201=1|167=OPT|200=201505|205=15|59=0|10=219|8=FIX.4.2|9=247|35=D|52=20141120-18:37:44.552|49=_SenderCompID|56=_TargetCompID|34=88|11=2001|21=1|100=MIAX|40=2|47=I|55=WTW   160515C00080000|54=1|38=30|115=PCUS|44=0.20|1=TEST|60=20141120-18:37:44.552|311=WTW|202=80.00|77=O|201=1|167=OPT|200=201605|205=15|59=0|10=118| 
12:44:36.424828 5616 FixParser.cpp:42 `Incoming Fix len 249: 8=FIX.4.2|9=226|35=F|52=20141120-18:44:36.091|49=_SenderCompID|56=_TargetCompID|34=107|11=1501.0|41=1501|60=20141120-18:44:36.091|55=SDRL|38=55|100=AMEXO|1=TEST|55=SDRL  150515C00060000|202=60.00|201=1|200=201505|167=OPT|205=15|115=PCUS|54=1|10=245|505|205=15|59=0|10=219|8=FIX.4.2|9=247|35=D|52=20141120-18:37:44.552|49=_SenderCompID|56=_TargetCompID|34=88|11=2001|21=1|100=MIAX|40=2|47=I|55=WTW   160515C00080000|54=1|38=30|115=PCUS|44=0.20|1=TEST|60=20141120-18:37:44.552|311=WTW|202=80.00|77=O|201=1|167=OPT|200=201605|205=15|59=0|10=118| 
12:45:06.374976 5616 FixParser.cpp:42 `Incoming Fix len 94: 8=FIX.4.2|9=071|35=0|52=20141120-18:45:06.043|49=_SenderCompID|56=_TargetCompID|34=108|10=034|.0|41=1501|60=20141120-18:44:36.091|55=SDRL|38=55|100=AMEXO|1=TEST|55=SDRL  150515C00060000|202=60.00|201=1|200=201505|167=OPT|205=15|115=PCUS|54=1|10=245|505|205=15|59=0|10=219|8=FIX.4.2|9=247|35=D|52=20141120-18:37:44.552|49=_SenderCompID|56=_TargetCompID|34=88|11=2001|21=1|100=MIAX|40=2|47=I|55=WTW   160515C00080000|54=1|38=30|115=PCUS|44=0.20|1=TEST|60=20141120-18:37:44.552|311=WTW|202=80.00|77=O|201=1|167=OPT|200=201605|205=15|59=0|10=118| 
12:45:35.327094 5616 FixParser.cpp:42 `Incoming Fix len 94: 8=FIX.4.2|9=071|35=0|52=20141120-18:45:35.994|49=_SenderCompID|56=_TargetCompID|34=109|10=052|.0|41=1501|60=20141120-18:44:36.091|55=SDRL|38=55|100=AMEXO|1=TEST|55=SDRL  150515C00060000|202=60.00|201=1|200=201505|167=OPT|205=15|115=PCUS|54=1|10=245|505|205=15|59=0|10=219|8=FIX.4.2|9=247|35=D|52=20141120-18:37:44.552|49=_SenderCompID|56=_TargetCompID|34=88|11=2001|21=1|100=MIAX|40=2|47=I|55=WTW   160515C00080000|54=1|38=30|115=PCUS|44=0.20|1=TEST|60=20141120-18:37:44.552|311=WTW|202=80.00|77=O|201=1|167=OPT|200=201605|205=15|59=0|10=118| 
12:46:05.277148 5616 FixParser.cpp:42 `Incoming Fix len 94: 8=FIX.4.2|9=071|35=0|52=20141120-18:46:05.945|49=_SenderCompID|56=_TargetCompID|34=110|10=038|.0|41=1501|60=20141120-18:44:36.091|55=SDRL|38=55|100=AMEXO|1=TEST|55=SDRL  150515C00060000|202=60.00|201=1|200=201505|167=OPT|205=15|115=PCUS|54=1|10=245|505|205=15|59=0|10=219|8=FIX.4.2|9=247|35=D|52=20141120-18:37:44.552|49=_SenderCompID|56=_TargetCompID|34=88|11=2001|21=1|100=MIAX|40=2|47=I|55=WTW   160515C00080000|54=1|38=30|115=PCUS|44=0.20|1=TEST|60=20141120-18:37:44.552|311=WTW|202=80.00|77=O|201=1|167=OPT|200=201605|205=15|59=0|10=118| 
12:46:18.986827 5616 ReadAndLogicThread.cpp:493 Outgoing FIX len 89: 8=FIX.4.2|9=066|35=8|52=20141120-18:46:18.656|49=XXXX|56=YYYY|34=60|11=1501|150=4|10=126| 
12:46:35.228286 5616 FixParser.cpp:42 `Incoming Fix len 94: 8=FIX.4.2|9=071|35=0|52=20141120-18:46:35.897|49=_SenderCompID|56=_TargetCompID|34=111|10=048|.0|41=1501|60=20141120-18:44:36.091|55=SDRL|38=55|100=AMEXO|1=TEST|55=SDRL  150515C00060000|202=60.00|201=1|200=201505|167=OPT|205=15|115=PCUS|54=1|10=245|505|205=15|59=0|10=219|8=FIX.4.2|9=247|35=D|52=20141120-18:37:44.552|49=_SenderCompID|56=_TargetCompID|34=88|11=2001|21=1|100=MIAX|40=2|47=I|55=WTW   160515C00080000|54=1|38=30|115=PCUS|44=0.20|1=TEST|60=20141120-18:37:44.552|311=WTW|202=80.00|77=O|201=1|167=OPT|200=201605|205=15|59=0|10=118| 
12:47:05.179358 5616 FixParser.cpp:42 `Incoming Fix len 94: 8=FIX.4.2|9=071|35=0|52=20141120-18:47:05.848|49=_SenderCompID|56=_TargetCompID|34=112|10=043|.0|41=1501|60=20141120-18:44:36.091|55=SDRL|38=55|100=AMEXO|1=TEST|55=SDRL  150515C00060000|202=60.00|201=1|200=201505|167=OPT|205=15|115=PCUS|54=1|10=245|505|205=15|59=0|10=219|8=FIX.4.2|9=247|35=D|52=20141120-18:37:44.552|49=_SenderCompID|56=_TargetCompID|34=88|11=2001|21=1|100=MIAX|40=2|47=I|55=WTW   160515C00080000|54=1|38=30|115=PCUS|44=0.20|1=TEST|60=20141120-18:37:44.552|311=WTW|202=80.00|77=O|201=1|167=OPT|200=201605|205=15|59=0|10=118| 
12:47:35.129540 5616 FixParser.cpp:42 `Incoming Fix len 94: 8=FIX.4.2|9=071|35=0|52=20141120-18:47:35.800|49=_SenderCompID|56=_TargetCompID|34=113|10=035|.0|41=1501|60=20141120-18:44:36.091|55=SDRL|38=55|100=AMEXO|1=TEST|55=SDRL  150515C00060000|202=60.00|201=1|200=201505|167=OPT|205=15|115=PCUS|54=1|10=245|505|205=15|59=0|10=219|8=FIX.4.2|9=247|35=D|52=20141120-18:37:44.552|49=_SenderCompID|56=_TargetCompID|34=88|11=2001|21=1|100=MIAX|40=2|47=I|55=WTW   160515C00080000|54=1|38=30|115=PCUS|44=0.20|1=TEST|60=20141120-18:37:44.552|311=WTW|202=80.00|77=O|201=1|167=OPT|200=201605|205=15|59=0|10=118| 
12:47:37.841511 5616 ReadAndLogicThread.cpp:493 Outgoing FIX len 89: 8=FIX.4.2|9=066|35=8|52=20141120-18:47:37.512|49=XXXX|56=YYYY|34=61|11=2001|150=4|10=116| 
12:48:05.080634 5616 FixParser.cpp:42 `Incoming Fix len 94: 8=FIX.4.2|9=071|35=0|52=20141120-18:48:05.752|49=_SenderCompID|56=_TargetCompID|34=114|10=040|.0|41=1501|60=20141120-18:44:36.091|55=SDRL|38=55|100=AMEXO|1=TEST|55=SDRL  150515C00060000|202=60.00|201=1|200=201505|167=OPT|205=15|115=PCUS|54=1|10=245|505|205=15|59=0|10=219|8=FIX.4.2|9=247|35=D|52=20141120-18:37:44.552|49=_SenderCompID|56=_TargetCompID|34=88|11=2001|21=1|100=MIAX|40=2|47=I|55=WTW   160515C00080000|54=1|38=30|115=PCUS|44=0.20|1=TEST|60=20141120-18:37:44.552|311=WTW|202=80.00|77=O|201=1|167=OPT|200=201605|205=15|59=0|10=118| 
12:48:35.030755 5616 FixParser.cpp:42 `Incoming Fix len 94: 8=FIX.4.2|9=071|35=0|52=20141120-18:48:35.703|49=_SenderCompID|56=_TargetCompID|34=115|10=040|.0|41=1501|60=20141120-18:44:36.091|55=SDRL|38=55|100=AMEXO|1=TEST|55=SDRL  150515C00060000|202=60.00|201=1|200=201505|167=OPT|205=15|115=PCUS|54=1|10=245|505|205=15|59=0|10=219|8=FIX.4.2|9=247|35=D|52=20141120-18:37:44.552|49=_SenderCompID|56=_TargetCompID|34=88|11=2001|21=1|100=MIAX|40=2|47=I|55=WTW   160515C00080000|54=1|38=30|115=PCUS|44=0.20|1=TEST|60=20141120-18:37:44.552|311=WTW|202=80.00|77=O|201=1|167=OPT|200=201605|205=15|59=0|10=118| 
12:49:05.982743 5616 FixParser.cpp:42 `Incoming Fix len 94: 8=FIX.4.2|9=071|35=0|52=20141120-18:49:05.654|49=_SenderCompID|56=_TargetCompID|34=116|10=044|.0|41=1501|60=20141120-18:44:36.091|55=SDRL|38=55|100=AMEXO|1=TEST|55=SDRL  150515C00060000|202=60.00|201=1|200=201505|167=OPT|205=15|115=PCUS|54=1|10=245|505|205=15|59=0|10=219|8=FIX.4.2|9=247|35=D|52=20141120-18:37:44.552|49=_SenderCompID|56=_TargetCompID|34=88|11=2001|21=1|100=MIAX|40=2|47=I|55=WTW   160515C00080000|54=1|38=30|115=PCUS|44=0.20|1=TEST|60=20141120-18:37:44.552|311=WTW|202=80.00|77=O|201=1|167=OPT|200=201605|205=15|59=0|10=118| 
12:49:35.933803 5616 FixParser.cpp:42 `Incoming Fix len 94: 8=FIX.4.2|9=071|35=0|52=20141120-18:49:35.606|49=_SenderCompID|56=_TargetCompID|34=117|10=045|.0|41=1501|60=20141120-18:44:36.091|55=SDRL|38=55|100=AMEXO|1=TEST|55=SDRL  150515C00060000|202=60.00|201=1|200=201505|167=OPT|205=15|115=PCUS|54=1|10=245|505|205=15|59=0|10=219|8=FIX.4.2|9=247|35=D|52=20141120-18:37:44.552|49=_SenderCompID|56=_TargetCompID|34=88|11=2001|21=1|100=MIAX|40=2|47=I|55=WTW   160515C00080000|54=1|38=30|115=PCUS|44=0.20|1=TEST|60=20141120-18:37:44.552|311=WTW|202=80.00|77=O|201=1|167=OPT|200=201605|205=15|59=0|10=118| 
12:50:05.883943 5616 FixParser.cpp:42 `Incoming Fix len 94: 8=FIX.4.2|9=071|35=0|52=20141120-18:50:05.558|49=_SenderCompID|56=_TargetCompID|34=118|10=041|.0|41=1501|60=20141120-18:44:36.091|55=SDRL|38=55|100=AMEXO|1=TEST|55=SDRL  150515C00060000|202=60.00|201=1|200=201505|167=OPT|205=15|115=PCUS|54=1|10=245|505|205=15|59=0|10=219|8=FIX.4.2|9=247|35=D|52=20141120-18:37:44.552|49=_SenderCompID|56=_TargetCompID|34=88|11=2001|21=1|100=MIAX|40=2|47=I|55=WTW   160515C00080000|54=1|38=30|115=PCUS|44=0.20|1=TEST|60=20141120-18:37:44.552|311=WTW|202=80.00|77=O|201=1|167=OPT|200=201605|205=15|59=0|10=118| 
12:50:35.835961 5616 FixParser.cpp:42 `Incoming Fix len 94: 8=FIX.4.2|9=071|35=0|52=20141120-18:50:35.509|49=_SenderCompID|56=_TargetCompID|34=119|10=041|.0|41=1501|60=20141120-18:44:36.091|55=SDRL|38=55|100=AMEXO|1=TEST|55=SDRL  150515C00060000|202=60.00|201=1|200=201505|167=OPT|205=15|115=PCUS|54=1|10=245|505|205=15|59=0|10=219|8=FIX.4.2|9=247|35=D|52=20141120-18:37:44.552|49=_SenderCompID|56=_TargetCompID|34=88|11=2001|21=1|100=MIAX|40=2|47=I|55=WTW   160515C00080000|54=1|38=30|115=PCUS|44=0.20|1=TEST|60=20141120-18:37:44.552|311=WTW|202=80.00|77=O|201=1|167=OPT|200=201605|205=15|59=0|10=118| 
12:51:05.786121 5616 FixParser.cpp:42 `Incoming Fix len 94: 8=FIX.4.2|9=071|35=0|52=20141120-18:51:05.461|49=_SenderCompID|56=_TargetCompID|34=120|10=028|.0|41=1501|60=20141120-18:44:36.091|55=SDRL|38=55|100=AMEXO|1=TEST|55=SDRL  150515C00060000|202=60.00|201=1|200=201505|167=OPT|205=15|115=PCUS|54=1|10=245|505|205=15|59=0|10=219|8=FIX.4.2|9=247|35=D|52=20141120-18:37:44.552|49=_SenderCompID|56=_TargetCompID|34=88|11=2001|21=1|100=MIAX|40=2|47=I|55=WTW   160515C00080000|54=1|38=30|115=PCUS|44=0.20|1=TEST|60=20141120-18:37:44.552|311=WTW|202=80.00|77=O|201=1|167=OPT|200=201605|205=15|59=0|10=118| 
12:51:35.738154 5616 FixParser.cpp:42 `Incoming Fix len 94: 8=FIX.4.2|9=071|35=0|52=20141120-18:51:35.413|49=_SenderCompID|56=_TargetCompID|34=121|10=029|.0|41=1501|60=20141120-18:44:36.091|55=SDRL|38=55|100=AMEXO|1=TEST|55=SDRL  150515C00060000|202=60.00|201=1|200=201505|167=OPT|205=15|115=PCUS|54=1|10=245|505|205=15|59=0|10=219|8=FIX.4.2|9=247|35=D|52=20141120-18:37:44.552|49=_SenderCompID|56=_TargetCompID|34=88|11=2001|21=1|100=MIAX|40=2|47=I|55=WTW   160515C00080000|54=1|38=30|115=PCUS|44=0.20|1=TEST|60=20141120-18:37:44.552|311=WTW|202=80.00|77=O|201=1|167=OPT|200=201605|205=15|59=0|10=118| 
12:52:05.687363 5616 FixParser.cpp:42 `Incoming Fix len 94: 8=FIX.4.2|9=071|35=0|52=20141120-18:52:05.364|49=_SenderCompID|56=_TargetCompID|34=122|10=033|.0|41=1501|60=20141120-18:44:36.091|55=SDRL|38=55|100=AMEXO|1=TEST|55=SDRL  150515C00060000|202=60.00|201=1|200=201505|167=OPT|205=15|115=PCUS|54=1|10=245|505|205=15|59=0|10=219|8=FIX.4.2|9=247|35=D|52=20141120-18:37:44.552|49=_SenderCompID|56=_TargetCompID|34=88|11=2001|21=1|100=MIAX|40=2|47=I|55=WTW   160515C00080000|54=1|38=30|115=PCUS|44=0.20|1=TEST|60=20141120-18:37:44.552|311=WTW|202=80.00|77=O|201=1|167=OPT|200=201605|205=15|59=0|10=118| 
12:52:35.639432 5616 FixParser.cpp:42 `Incoming Fix len 94: 8=FIX.4.2|9=071|35=0|52=20141120-18:52:35.316|49=_SenderCompID|56=_TargetCompID|34=123|10=034|.0|41=1501|60=20141120-18:44:36.091|55=SDRL|38=55|100=AMEXO|1=TEST|55=SDRL  150515C00060000|202=60.00|201=1|200=201505|167=OPT|205=15|115=PCUS|54=1|10=245|505|205=15|59=0|10=219|8=FIX.4.2|9=247|35=D|52=20141120-18:37:44.552|49=_SenderCompID|56=_TargetCompID|34=88|11=2001|21=1|100=MIAX|40=2|47=I|55=WTW   160515C00080000|54=1|38=30|115=PCUS|44=0.20|1=TEST|60=20141120-18:37:44.552|311=WTW|202=80.00|77=O|201=1|167=OPT|200=201605|205=15|59=0|10=118| 
12:53:05.590581 5616 FixParser.cpp:42 `Incoming Fix len 94: 8=FIX.4.2|9=071|35=0|52=20141120-18:53:05.268|49=_SenderCompID|56=_TargetCompID|34=124|10=039|.0|41=1501|60=20141120-18:44:36.091|55=SDRL|38=55|100=AMEXO|1=TEST|55=SDRL  150515C00060000|202=60.00|201=1|200=201505|167=OPT|205=15|115=PCUS|54=1|10=245|505|205=15|59=0|10=219|8=FIX.4.2|9=247|35=D|52=20141120-18:37:44.552|49=_SenderCompID|56=_TargetCompID|34=88|11=2001|21=1|100=MIAX|40=2|47=I|55=WTW   160515C00080000|54=1|38=30|115=PCUS|44=0.20|1=TEST|60=20141120-18:37:44.552|311=WTW|202=80.00|77=O|201=1|167=OPT|200=201605|205=15|59=0|10=118| 
12:53:35.289595 5616 FixParser.cpp:42 `Incoming Fix len 94: 8=FIX.4.2|9=071|35=0|52=20141121-18:53:35.219|49=_SenderCompID|56=_TargetCompID|34=125|10=040|.0|41=1501|60=20141120-18:44:36.091|55=SDRL|38=55|100=AMEXO|1=TEST|55=SDRL  150515C00060000|202=60.00|201=1|200=201505|167=OPT|205=15|115=PCUS|54=1|10=245|505|205=15|59=0|10=219|8=FIX.4.2|9=247|35=D|52=20141120-18:37:44.552|49=_SenderCompID|56=_TargetCompID|34=88|11=2001|21=1|100=MIAX|40=2|47=I|55=WTW   160515C00080000|54=1|38=30|115=PCUS|44=0.20|1=TEST|60=20141120-18:37:44.552|311=WTW|202=80.00|77=O|201=1|167=OPT|200=201605|205=15|59=0|10=118| 
12:54:03.425487 5616 FixParser.cpp:42 `Incoming Fix len 271: 8=FIX.4.2|9=248|35=D|52=20141121-18:54:03.355|49=_SenderCompID|56=_TargetCompID|34=126|11=2501|21=1|100=MIAX|40=2|47=I|55=WTW   160515C00080000|54=1|38=30|115=PCUS|44=0.20|1=TEST|60=20141121-18:54:03.355|311=WTW|202=80.00|77=O|201=1|167=OPT|200=201605|205=15|59=0|10=157||8=FIX.4.2|9=247|35=D|52=20141120-18:37:44.552|49=_SenderCompID|56=_TargetCompID|34=88|11=2001|21=1|100=MIAX|40=2|47=I|55=WTW   160515C00080000|54=1|38=30|115=PCUS|44=0.20|1=TEST|60=20141120-18:37:44.552|311=WTW|202=80.00|77=O|201=1|167=OPT|200=201605|205=15|59=0|10=118| 
12:54:03.430951 5616 ReadAndLogicThread.cpp:493 Outgoing FIX len 89: 8=FIX.4.2|9=066|35=8|52=20141121-18:54:03.361|49=XXXX|56=YYYY|34=62|11=2501|150=0|10=112| 
12:54:31.076547 5616 FixParser.cpp:42 `Incoming Fix len 271: 8=FIX.4.2|9=248|35=D|52=20141121-18:54:31.007|49=_SenderCompID|56=_TargetCompID|34=127|11=2601|21=1|100=PHLXO|40=2|47=I|55=WTW   160515C00080000|54=2|38=5|115=PCUS|44=0.25|1=TEST|60=20141121-18:54:31.007|311=WTW|202=80.00|77=C|201=1|167=OPT|200=201605|205=15|59=0|10=189||8=FIX.4.2|9=247|35=D|52=20141120-18:37:44.552|49=_SenderCompID|56=_TargetCompID|34=88|11=2001|21=1|100=MIAX|40=2|47=I|55=WTW   160515C00080000|54=1|38=30|115=PCUS|44=0.20|1=TEST|60=20141120-18:37:44.552|311=WTW|202=80.00|77=O|201=1|167=OPT|200=201605|205=15|59=0|10=118| 
12:54:31.077713 5616 ReadAndLogicThread.cpp:493 Outgoing FIX len 89: 8=FIX.4.2|9=066|35=8|52=20141121-18:54:31.009|49=XXXX|56=YYYY|34=63|11=2601|150=0|10=114| 
12:55:00.027815 5616 FixParser.cpp:42 `Incoming Fix len 94: 8=FIX.4.2|9=071|35=0|52=20141121-18:55:00.959|49=_SenderCompID|56=_TargetCompID|34=128|10=048||21=1|100=PHLXO|40=2|47=I|55=WTW   160515C00080000|54=2|38=5|115=PCUS|44=0.25|1=TEST|60=20141121-18:54:31.007|311=WTW|202=80.00|77=C|201=1|167=OPT|200=201605|205=15|59=0|10=189||8=FIX.4.2|9=247|35=D|52=20141120-18:37:44.552|49=_SenderCompID|56=_TargetCompID|34=88|11=2001|21=1|100=MIAX|40=2|47=I|55=WTW   160515C00080000|54=1|38=30|115=PCUS|44=0.20|1=TEST|60=20141120-18:37:44.552|311=WTW|202=80.00|77=O|201=1|167=OPT|200=201605|205=15|59=0|10=118| 
12:55:30.977871 5616 FixParser.cpp:42 `Incoming Fix len 94: 8=FIX.4.2|9=071|35=0|52=20141121-18:55:30.910|49=_SenderCompID|56=_TargetCompID|34=129|10=039||21=1|100=PHLXO|40=2|47=I|55=WTW   160515C00080000|54=2|38=5|115=PCUS|44=0.25|1=TEST|60=20141121-18:54:31.007|311=WTW|202=80.00|77=C|201=1|167=OPT|200=201605|205=15|59=0|10=189||8=FIX.4.2|9=247|35=D|52=20141120-18:37:44.552|49=_SenderCompID|56=_TargetCompID|34=88|11=2001|21=1|100=MIAX|40=2|47=I|55=WTW   160515C00080000|54=1|38=30|115=PCUS|44=0.20|1=TEST|60=20141120-18:37:44.552|311=WTW|202=80.00|77=O|201=1|167=OPT|200=201605|205=15|59=0|10=118| 
12:56:00.927943 5616 FixParser.cpp:42 `Incoming Fix len 94: 8=FIX.4.2|9=071|35=0|52=20141121-18:56:00.861|49=_SenderCompID|56=_TargetCompID|34=130|10=034||21=1|100=PHLXO|40=2|47=I|55=WTW   160515C00080000|54=2|38=5|115=PCUS|44=0.25|1=TEST|60=20141121-18:54:31.007|311=WTW|202=80.00|77=C|201=1|167=OPT|200=201605|205=15|59=0|10=189||8=FIX.4.2|9=247|35=D|52=20141120-18:37:44.552|49=_SenderCompID|56=_TargetCompID|34=88|11=2001|21=1|100=MIAX|40=2|47=I|55=WTW   160515C00080000|54=1|38=30|115=PCUS|44=0.20|1=TEST|60=20141120-18:37:44.552|311=WTW|202=80.00|77=O|201=1|167=OPT|200=201605|205=15|59=0|10=118| 
12:56:30.879049 5616 FixParser.cpp:42 `Incoming Fix len 94: 8=FIX.4.2|9=071|35=0|52=20141121-18:56:30.812|49=_SenderCompID|56=_TargetCompID|34=131|10=034||21=1|100=PHLXO|40=2|47=I|55=WTW   160515C00080000|54=2|38=5|115=PCUS|44=0.25|1=TEST|60=20141121-18:54:31.007|311=WTW|202=80.00|77=C|201=1|167=OPT|200=201605|205=15|59=0|10=189||8=FIX.4.2|9=247|35=D|52=20141120-18:37:44.552|49=_SenderCompID|56=_TargetCompID|34=88|11=2001|21=1|100=MIAX|40=2|47=I|55=WTW   160515C00080000|54=1|38=30|115=PCUS|44=0.20|1=TEST|60=20141120-18:37:44.552|311=WTW|202=80.00|77=O|201=1|167=OPT|200=201605|205=15|59=0|10=118| 
12:57:00.830048 5616 FixParser.cpp:42 `Incoming Fix len 94: 8=FIX.4.2|9=071|35=0|52=20141121-18:57:00.763|49=_SenderCompID|56=_TargetCompID|34=132|10=038||21=1|100=PHLXO|40=2|47=I|55=WTW   160515C00080000|54=2|38=5|115=PCUS|44=0.25|1=TEST|60=20141121-18:54:31.007|311=WTW|202=80.00|77=C|201=1|167=OPT|200=201605|205=15|59=0|10=189||8=FIX.4.2|9=247|35=D|52=20141120-18:37:44.552|49=_SenderCompID|56=_TargetCompID|34=88|11=2001|21=1|100=MIAX|40=2|47=I|55=WTW   160515C00080000|54=1|38=30|115=PCUS|44=0.20|1=TEST|60=20141120-18:37:44.552|311=WTW|202=80.00|77=O|201=1|167=OPT|200=201605|205=15|59=0|10=118| 
12:57:30.781163 5616 FixParser.cpp:42 `Incoming Fix len 94: 8=FIX.4.2|9=071|35=0|52=20141121-18:57:30.715|49=_SenderCompID|56=_TargetCompID|34=133|10=039||21=1|100=PHLXO|40=2|47=I|55=WTW   160515C00080000|54=2|38=5|115=PCUS|44=0.25|1=TEST|60=20141121-18:54:31.007|311=WTW|202=80.00|77=C|201=1|167=OPT|200=201605|205=15|59=0|10=189||8=FIX.4.2|9=247|35=D|52=20141120-18:37:44.552|49=_SenderCompID|56=_TargetCompID|34=88|11=2001|21=1|100=MIAX|40=2|47=I|55=WTW   160515C00080000|54=1|38=30|115=PCUS|44=0.20|1=TEST|60=20141120-18:37:44.552|311=WTW|202=80.00|77=O|201=1|167=OPT|200=201605|205=15|59=0|10=118| 
12:58:00.731304 5616 FixParser.cpp:42 `Incoming Fix len 94: 8=FIX.4.2|9=071|35=0|52=20141121-18:58:00.667|49=_SenderCompID|56=_TargetCompID|34=134|10=044||21=1|100=PHLXO|40=2|47=I|55=WTW   160515C00080000|54=2|38=5|115=PCUS|44=0.25|1=TEST|60=20141121-18:54:31.007|311=WTW|202=80.00|77=C|201=1|167=OPT|200=201605|205=15|59=0|10=189||8=FIX.4.2|9=247|35=D|52=20141120-18:37:44.552|49=_SenderCompID|56=_TargetCompID|34=88|11=2001|21=1|100=MIAX|40=2|47=I|55=WTW   160515C00080000|54=1|38=30|115=PCUS|44=0.20|1=TEST|60=20141120-18:37:44.552|311=WTW|202=80.00|77=O|201=1|167=OPT|200=201605|205=15|59=0|10=118| 
12:58:30.684321 5616 FixParser.cpp:42 `Incoming Fix len 94: 8=FIX.4.2|9=071|35=0|52=20141121-18:58:30.619|49=_SenderCompID|56=_TargetCompID|34=135|10=045||21=1|100=PHLXO|40=2|47=I|55=WTW   160515C00080000|54=2|38=5|115=PCUS|44=0.25|1=TEST|60=20141121-18:54:31.007|311=WTW|202=80.00|77=C|201=1|167=OPT|200=201605|205=15|59=0|10=189||8=FIX.4.2|9=247|35=D|52=20141120-18:37:44.552|49=_SenderCompID|56=_TargetCompID|34=88|11=2001|21=1|100=MIAX|40=2|47=I|55=WTW   160515C00080000|54=1|38=30|115=PCUS|44=0.20|1=TEST|60=20141120-18:37:44.552|311=WTW|202=80.00|77=O|201=1|167=OPT|200=201605|205=15|59=0|10=118| 
12:59:00.634496 5616 FixParser.cpp:42 `Incoming Fix len 94: 8=FIX.4.2|9=071|35=0|52=20141121-18:59:00.570|49=_SenderCompID|56=_TargetCompID|34=136|10=040||21=1|100=PHLXO|40=2|47=I|55=WTW   160515C00080000|54=2|38=5|115=PCUS|44=0.25|1=TEST|60=20141121-18:54:31.007|311=WTW|202=80.00|77=C|201=1|167=OPT|200=201605|205=15|59=0|10=189||8=FIX.4.2|9=247|35=D|52=20141120-18:37:44.552|49=_SenderCompID|56=_TargetCompID|34=88|11=2001|21=1|100=MIAX|40=2|47=I|55=WTW   160515C00080000|54=1|38=30|115=PCUS|44=0.20|1=TEST|60=20141120-18:37:44.552|311=WTW|202=80.00|77=O|201=1|167=OPT|200=201605|205=15|59=0|10=118| 
12:59:30.583654 5616 FixParser.cpp:42 `Incoming Fix len 94: 8=FIX.4.2|9=071|35=0|52=20141121-18:59:30.521|49=_SenderCompID|56=_TargetCompID|34=137|10=040||21=1|100=PHLXO|40=2|47=I|55=WTW   160515C00080000|54=2|38=5|115=PCUS|44=0.25|1=TEST|60=20141121-18:54:31.007|311=WTW|202=80.00|77=C|201=1|167=OPT|200=201605|205=15|59=0|10=189||8=FIX.4.2|9=247|35=D|52=20141120-18:37:44.552|49=_SenderCompID|56=_TargetCompID|34=88|11=2001|21=1|100=MIAX|40=2|47=I|55=WTW   160515C00080000|54=1|38=30|115=PCUS|44=0.20|1=TEST|60=20141120-18:37:44.552|311=WTW|202=80.00|77=O|201=1|167=OPT|200=201605|205=15|59=0|10=118| 
13:00:00.534728 5616 FixParser.cpp:42 `Incoming Fix len 94: 8=FIX.4.2|9=071|35=0|52=20141121-19:00:00.472|49=_SenderCompID|56=_TargetCompID|34=138|10=030||21=1|100=PHLXO|40=2|47=I|55=WTW   160515C00080000|54=2|38=5|115=PCUS|44=0.25|1=TEST|60=20141121-18:54:31.007|311=WTW|202=80.00|77=C|201=1|167=OPT|200=201605|205=15|59=0|10=189||8=FIX.4.2|9=247|35=D|52=20141120-18:37:44.552|49=_SenderCompID|56=_TargetCompID|34=88|11=2001|21=1|100=MIAX|40=2|47=I|55=WTW   160515C00080000|54=1|38=30|115=PCUS|44=0.20|1=TEST|60=20141120-18:37:44.552|311=WTW|202=80.00|77=O|201=1|167=OPT|200=201605|205=15|59=0|10=118| 
13:00:30.485674 5616 FixParser.cpp:42 `Incoming Fix len 94: 8=FIX.4.2|9=071|35=0|52=20141121-19:00:30.423|49=_SenderCompID|56=_TargetCompID|34=139|10=030||21=1|100=PHLXO|40=2|47=I|55=WTW   160515C00080000|54=2|38=5|115=PCUS|44=0.25|1=TEST|60=20141121-18:54:31.007|311=WTW|202=80.00|77=C|201=1|167=OPT|200=201605|205=15|59=0|10=189||8=FIX.4.2|9=247|35=D|52=20141120-18:37:44.552|49=_SenderCompID|56=_TargetCompID|34=88|11=2001|21=1|100=MIAX|40=2|47=I|55=WTW   160515C00080000|54=1|38=30|115=PCUS|44=0.20|1=TEST|60=20141120-18:37:44.552|311=WTW|202=80.00|77=O|201=1|167=OPT|200=201605|205=15|59=0|10=118| 
13:01:00.435857 5616 FixParser.cpp:42 `Incoming Fix len 94: 8=FIX.4.2|9=071|35=0|52=20141121-19:01:00.375|49=_SenderCompID|56=_TargetCompID|34=140|10=026||21=1|100=PHLXO|40=2|47=I|55=WTW   160515C00080000|54=2|38=5|115=PCUS|44=0.25|1=TEST|60=20141121-18:54:31.007|311=WTW|202=80.00|77=C|201=1|167=OPT|200=201605|205=15|59=0|10=189||8=FIX.4.2|9=247|35=D|52=20141120-18:37:44.552|49=_SenderCompID|56=_TargetCompID|34=88|11=2001|21=1|100=MIAX|40=2|47=I|55=WTW   160515C00080000|54=1|38=30|115=PCUS|44=0.20|1=TEST|60=20141120-18:37:44.552|311=WTW|202=80.00|77=O|201=1|167=OPT|200=201605|205=15|59=0|10=118| 
13:01:30.386844 5616 FixParser.cpp:42 `Incoming Fix len 94: 8=FIX.4.2|9=071|35=0|52=20141121-19:01:30.326|49=_SenderCompID|56=_TargetCompID|34=141|10=026||21=1|100=PHLXO|40=2|47=I|55=WTW   160515C00080000|54=2|38=5|115=PCUS|44=0.25|1=TEST|60=20141121-18:54:31.007|311=WTW|202=80.00|77=C|201=1|167=OPT|200=201605|205=15|59=0|10=189||8=FIX.4.2|9=247|35=D|52=20141120-18:37:44.552|49=_SenderCompID|56=_TargetCompID|34=88|11=2001|21=1|100=MIAX|40=2|47=I|55=WTW   160515C00080000|54=1|38=30|115=PCUS|44=0.20|1=TEST|60=20141120-18:37:44.552|311=WTW|202=80.00|77=O|201=1|167=OPT|200=201605|205=15|59=0|10=118| 
13:02:00.337987 5616 FixParser.cpp:42 `Incoming Fix len 94: 8=FIX.4.2|9=071|35=0|52=20141121-19:02:00.277|49=_SenderCompID|56=_TargetCompID|34=142|10=030||21=1|100=PHLXO|40=2|47=I|55=WTW   160515C00080000|54=2|38=5|115=PCUS|44=0.25|1=TEST|60=20141121-18:54:31.007|311=WTW|202=80.00|77=C|201=1|167=OPT|200=201605|205=15|59=0|10=189||8=FIX.4.2|9=247|35=D|52=20141120-18:37:44.552|49=_SenderCompID|56=_TargetCompID|34=88|11=2001|21=1|100=MIAX|40=2|47=I|55=WTW   160515C00080000|54=1|38=30|115=PCUS|44=0.20|1=TEST|60=20141120-18:37:44.552|311=WTW|202=80.00|77=O|201=1|167=OPT|200=201605|205=15|59=0|10=118| 
13:02:30.289041 5616 FixParser.cpp:42 `Incoming Fix len 94: 8=FIX.4.2|9=071|35=0|52=20141121-19:02:30.229|49=_SenderCompID|56=_TargetCompID|34=143|10=031||21=1|100=PHLXO|40=2|47=I|55=WTW   160515C00080000|54=2|38=5|115=PCUS|44=0.25|1=TEST|60=20141121-18:54:31.007|311=WTW|202=80.00|77=C|201=1|167=OPT|200=201605|205=15|59=0|10=189||8=FIX.4.2|9=247|35=D|52=20141120-18:37:44.552|49=_SenderCompID|56=_TargetCompID|34=88|11=2001|21=1|100=MIAX|40=2|47=I|55=WTW   160515C00080000|54=1|38=30|115=PCUS|44=0.20|1=TEST|60=20141120-18:37:44.552|311=WTW|202=80.00|77=O|201=1|167=OPT|200=201605|205=15|59=0|10=118| 
13:03:00.239250 5616 FixParser.cpp:42 `Incoming Fix len 94: 8=FIX.4.2|9=071|35=0|52=20141121-19:03:00.181|49=_SenderCompID|56=_TargetCompID|34=144|10=027||21=1|100=PHLXO|40=2|47=I|55=WTW   160515C00080000|54=2|38=5|115=PCUS|44=0.25|1=TEST|60=20141121-18:54:31.007|311=WTW|202=80.00|77=C|201=1|167=OPT|200=201605|205=15|59=0|10=189||8=FIX.4.2|9=247|35=D|52=20141120-18:37:44.552|49=_SenderCompID|56=_TargetCompID|34=88|11=2001|21=1|100=MIAX|40=2|47=I|55=WTW   160515C00080000|54=1|38=30|115=PCUS|44=0.20|1=TEST|60=20141120-18:37:44.552|311=WTW|202=80.00|77=O|201=1|167=OPT|200=201605|205=15|59=0|10=118| 
13:03:30.191257 5616 FixParser.cpp:42 `Incoming Fix len 94: 8=FIX.4.2|9=071|35=0|52=20141121-19:03:30.132|49=_SenderCompID|56=_TargetCompID|34=145|10=027||21=1|100=PHLXO|40=2|47=I|55=WTW   160515C00080000|54=2|38=5|115=PCUS|44=0.25|1=TEST|60=20141121-18:54:31.007|311=WTW|202=80.00|77=C|201=1|167=OPT|200=201605|205=15|59=0|10=189||8=FIX.4.2|9=247|35=D|52=20141120-18:37:44.552|49=_SenderCompID|56=_TargetCompID|34=88|11=2001|21=1|100=MIAX|40=2|47=I|55=WTW   160515C00080000|54=1|38=30|115=PCUS|44=0.20|1=TEST|60=20141120-18:37:44.552|311=WTW|202=80.00|77=O|201=1|167=OPT|200=201605|205=15|59=0|10=118| 
13:04:00.142403 5616 FixParser.cpp:42 `Incoming Fix len 94: 8=FIX.4.2|9=071|35=0|52=20141121-19:04:00.084|49=_SenderCompID|56=_TargetCompID|34=146|10=032||21=1|100=PHLXO|40=2|47=I|55=WTW   160515C00080000|54=2|38=5|115=PCUS|44=0.25|1=TEST|60=20141121-18:54:31.007|311=WTW|202=80.00|77=C|201=1|167=OPT|200=201605|205=15|59=0|10=189||8=FIX.4.2|9=247|35=D|52=20141120-18:37:44.552|49=_SenderCompID|56=_TargetCompID|34=88|11=2001|21=1|100=MIAX|40=2|47=I|55=WTW   160515C00080000|54=1|38=30|115=PCUS|44=0.20|1=TEST|60=20141120-18:37:44.552|311=WTW|202=80.00|77=O|201=1|167=OPT|200=201605|205=15|59=0|10=118| 
13:04:30.092503 5616 FixParser.cpp:42 `Incoming Fix len 94: 8=FIX.4.2|9=071|35=0|52=20141121-19:04:30.036|49=_SenderCompID|56=_TargetCompID|34=147|10=033||21=1|100=PHLXO|40=2|47=I|55=WTW   160515C00080000|54=2|38=5|115=PCUS|44=0.25|1=TEST|60=20141121-18:54:31.007|311=WTW|202=80.00|77=C|201=1|167=OPT|200=201605|205=15|59=0|10=189||8=FIX.4.2|9=247|35=D|52=20141120-18:37:44.552|49=_SenderCompID|56=_TargetCompID|34=88|11=2001|21=1|100=MIAX|40=2|47=I|55=WTW   160515C00080000|54=1|38=30|115=PCUS|44=0.20|1=TEST|60=20141120-18:37:44.552|311=WTW|202=80.00|77=O|201=1|167=OPT|200=201605|205=15|59=0|10=118| 
13:04:59.044643 5616 FixParser.cpp:42 `Incoming Fix len 94: 8=FIX.4.2|9=071|35=0|52=20141121-19:04:59.988|49=_SenderCompID|56=_TargetCompID|34=148|10=061||21=1|100=PHLXO|40=2|47=I|55=WTW   160515C00080000|54=2|38=5|115=PCUS|44=0.25|1=TEST|60=20141121-18:54:31.007|311=WTW|202=80.00|77=C|201=1|167=OPT|200=201605|205=15|59=0|10=189||8=FIX.4.2|9=247|35=D|52=20141120-18:37:44.552|49=_SenderCompID|56=_TargetCompID|34=88|11=2001|21=1|100=MIAX|40=2|47=I|55=WTW   160515C00080000|54=1|38=30|115=PCUS|44=0.20|1=TEST|60=20141120-18:37:44.552|311=WTW|202=80.00|77=O|201=1|167=OPT|200=201605|205=15|59=0|10=118| 
13:05:29.996635 5616 FixParser.cpp:42 `Incoming Fix len 94: 8=FIX.4.2|9=071|35=0|52=20141121-19:05:29.940|49=_SenderCompID|56=_TargetCompID|34=149|10=048||21=1|100=PHLXO|40=2|47=I|55=WTW   160515C00080000|54=2|38=5|115=PCUS|44=0.25|1=TEST|60=20141121-18:54:31.007|311=WTW|202=80.00|77=C|201=1|167=OPT|200=201605|205=15|59=0|10=189||8=FIX.4.2|9=247|35=D|52=20141120-18:37:44.552|49=_SenderCompID|56=_TargetCompID|34=88|11=2001|21=1|100=MIAX|40=2|47=I|55=WTW   160515C00080000|54=1|38=30|115=PCUS|44=0.20|1=TEST|60=20141120-18:37:44.552|311=WTW|202=80.00|77=O|201=1|167=OPT|200=201605|205=15|59=0|10=118| 
13:05:59.946662 5616 FixParser.cpp:42 `Incoming Fix len 94: 8=FIX.4.2|9=071|35=0|52=20141121-19:05:59.891|49=_SenderCompID|56=_TargetCompID|34=150|10=048||21=1|100=PHLXO|40=2|47=I|55=WTW   160515C00080000|54=2|38=5|115=PCUS|44=0.25|1=TEST|60=20141121-18:54:31.007|311=WTW|202=80.00|77=C|201=1|167=OPT|200=201605|205=15|59=0|10=189||8=FIX.4.2|9=247|35=D|52=20141120-18:37:44.552|49=_SenderCompID|56=_TargetCompID|34=88|11=2001|21=1|100=MIAX|40=2|47=I|55=WTW   160515C00080000|54=1|38=30|115=PCUS|44=0.20|1=TEST|60=20141120-18:37:44.552|311=WTW|202=80.00|77=O|201=1|167=OPT|200=201605|205=15|59=0|10=118| 
13:06:29.896795 5616 FixParser.cpp:42 `Incoming Fix len 94: 8=FIX.4.2|9=071|35=0|52=20141121-19:06:29.842|49=_SenderCompID|56=_TargetCompID|34=151|10=043||21=1|100=PHLXO|40=2|47=I|55=WTW   160515C00080000|54=2|38=5|115=PCUS|44=0.25|1=TEST|60=20141121-18:54:31.007|311=WTW|202=80.00|77=C|201=1|167=OPT|200=201605|205=15|59=0|10=189||8=FIX.4.2|9=247|35=D|52=20141120-18:37:44.552|49=_SenderCompID|56=_TargetCompID|34=88|11=2001|21=1|100=MIAX|40=2|47=I|55=WTW   160515C00080000|54=1|38=30|115=PCUS|44=0.20|1=TEST|60=20141120-18:37:44.552|311=WTW|202=80.00|77=O|201=1|167=OPT|200=201605|205=15|59=0|10=118| 
13:06:59.846943 5616 FixParser.cpp:42 `Incoming Fix len 94: 8=FIX.4.2|9=071|35=0|52=20141121-19:06:59.793|49=_SenderCompID|56=_TargetCompID|34=152|10=052||21=1|100=PHLXO|40=2|47=I|55=WTW   160515C00080000|54=2|38=5|115=PCUS|44=0.25|1=TEST|60=20141121-18:54:31.007|311=WTW|202=80.00|77=C|201=1|167=OPT|200=201605|205=15|59=0|10=189||8=FIX.4.2|9=247|35=D|52=20141120-18:37:44.552|49=_SenderCompID|56=_TargetCompID|34=88|11=2001|21=1|100=MIAX|40=2|47=I|55=WTW   160515C00080000|54=1|38=30|115=PCUS|44=0.20|1=TEST|60=20141120-18:37:44.552|311=WTW|202=80.00|77=O|201=1|167=OPT|200=201605|205=15|59=0|10=118| 
13:07:29.797074 5616 FixParser.cpp:42 `Incoming Fix len 94: 8=FIX.4.2|9=071|35=0|52=20141121-19:07:29.744|49=_SenderCompID|56=_TargetCompID|34=153|10=047||21=1|100=PHLXO|40=2|47=I|55=WTW   160515C00080000|54=2|38=5|115=PCUS|44=0.25|1=TEST|60=20141121-18:54:31.007|311=WTW|202=80.00|77=C|201=1|167=OPT|200=201605|205=15|59=0|10=189||8=FIX.4.2|9=247|35=D|52=20141120-18:37:44.552|49=_SenderCompID|56=_TargetCompID|34=88|11=2001|21=1|100=MIAX|40=2|47=I|55=WTW   160515C00080000|54=1|38=30|115=PCUS|44=0.20|1=TEST|60=20141120-18:37:44.552|311=WTW|202=80.00|77=O|201=1|167=OPT|200=201605|205=15|59=0|10=118| 
13:07:59.748137 5616 FixParser.cpp:42 `Incoming Fix len 94: 8=FIX.4.2|9=071|35=0|52=20141121-19:07:59.695|49=_SenderCompID|56=_TargetCompID|34=154|10=056||21=1|100=PHLXO|40=2|47=I|55=WTW   160515C00080000|54=2|38=5|115=PCUS|44=0.25|1=TEST|60=20141121-18:54:31.007|311=WTW|202=80.00|77=C|201=1|167=OPT|200=201605|205=15|59=0|10=189||8=FIX.4.2|9=247|35=D|52=20141120-18:37:44.552|49=_SenderCompID|56=_TargetCompID|34=88|11=2001|21=1|100=MIAX|40=2|47=I|55=WTW   160515C00080000|54=1|38=30|115=PCUS|44=0.20|1=TEST|60=20141120-18:37:44.552|311=WTW|202=80.00|77=O|201=1|167=OPT|200=201605|205=15|59=0|10=118| 
13:08:29.698133 5616 FixParser.cpp:42 `Incoming Fix len 94: 8=FIX.4.2|9=071|35=0|52=20141121-19:08:29.646|49=_SenderCompID|56=_TargetCompID|34=155|10=051||21=1|100=PHLXO|40=2|47=I|55=WTW   160515C00080000|54=2|38=5|115=PCUS|44=0.25|1=TEST|60=20141121-18:54:31.007|311=WTW|202=80.00|77=C|201=1|167=OPT|200=201605|205=15|59=0|10=189||8=FIX.4.2|9=247|35=D|52=20141120-18:37:44.552|49=_SenderCompID|56=_TargetCompID|34=88|11=2001|21=1|100=MIAX|40=2|47=I|55=WTW   160515C00080000|54=1|38=30|115=PCUS|44=0.20|1=TEST|60=20141120-18:37:44.552|311=WTW|202=80.00|77=O|201=1|167=OPT|200=201605|205=15|59=0|10=118| 
13:08:59.649242 5616 FixParser.cpp:42 `Incoming Fix len 94: 8=FIX.4.2|9=071|35=0|52=20141121-19:08:59.597|49=_SenderCompID|56=_TargetCompID|34=156|10=060||21=1|100=PHLXO|40=2|47=I|55=WTW   160515C00080000|54=2|38=5|115=PCUS|44=0.25|1=TEST|60=20141121-18:54:31.007|311=WTW|202=80.00|77=C|201=1|167=OPT|200=201605|205=15|59=0|10=189||8=FIX.4.2|9=247|35=D|52=20141120-18:37:44.552|49=_SenderCompID|56=_TargetCompID|34=88|11=2001|21=1|100=MIAX|40=2|47=I|55=WTW   160515C00080000|54=1|38=30|115=PCUS|44=0.20|1=TEST|60=20141120-18:37:44.552|311=WTW|202=80.00|77=O|201=1|167=OPT|200=201605|205=15|59=0|10=118| 
13:09:29.599399 5616 FixParser.cpp:42 `Incoming Fix len 94: 8=FIX.4.2|9=071|35=0|52=20141121-19:09:29.548|49=_SenderCompID|56=_TargetCompID|34=157|10=055||21=1|100=PHLXO|40=2|47=I|55=WTW   160515C00080000|54=2|38=5|115=PCUS|44=0.25|1=TEST|60=20141121-18:54:31.007|311=WTW|202=80.00|77=C|201=1|167=OPT|200=201605|205=15|59=0|10=189||8=FIX.4.2|9=247|35=D|52=20141120-18:37:44.552|49=_SenderCompID|56=_TargetCompID|34=88|11=2001|21=1|100=MIAX|40=2|47=I|55=WTW   160515C00080000|54=1|38=30|115=PCUS|44=0.20|1=TEST|60=20141120-18:37:44.552|311=WTW|202=80.00|77=O|201=1|167=OPT|200=201605|205=15|59=0|10=118| 
13:09:58.191403 5616 FixParser.cpp:42 `Incoming Fix len 273: 8=FIX.4.2|9=250|35=D|52=20141121-19:09:58.141|49=_SenderCompID|56=_TargetCompID|34=158|11=2701|21=1|100=PHLXO|40=2|47=I|55=PYPL  150515C00050000|54=1|38=50|115=PCUS|44=0.40|1=TEST|60=20141121-19:09:58.141|311=PYPL|202=50.00|77=O|201=1|167=OPT|200=201505|205=15|59=0|10=099|=FIX.4.2|9=247|35=D|52=20141120-18:37:44.552|49=_SenderCompID|56=_TargetCompID|34=88|11=2001|21=1|100=MIAX|40=2|47=I|55=WTW   160515C00080000|54=1|38=30|115=PCUS|44=0.20|1=TEST|60=20141120-18:37:44.552|311=WTW|202=80.00|77=O|201=1|167=OPT|200=201605|205=15|59=0|10=118| 
13:09:58.192416 5616 ReadAndLogicThread.cpp:493 Outgoing FIX len 89: 8=FIX.4.2|9=066|35=8|52=20141121-19:09:58.143|49=XXXX|56=YYYY|34=64|11=2701|150=0|10=125| 
13:10:28.143487 5616 FixParser.cpp:42 `Incoming Fix len 94: 8=FIX.4.2|9=071|35=0|52=20141121-19:10:28.093|49=_SenderCompID|56=_TargetCompID|34=159|10=043||21=1|100=PHLXO|40=2|47=I|55=PYPL  150515C00050000|54=1|38=50|115=PCUS|44=0.40|1=TEST|60=20141121-19:09:58.141|311=PYPL|202=50.00|77=O|201=1|167=OPT|200=201505|205=15|59=0|10=099|=FIX.4.2|9=247|35=D|52=20141120-18:37:44.552|49=_SenderCompID|56=_TargetCompID|34=88|11=2001|21=1|100=MIAX|40=2|47=I|55=WTW   160515C00080000|54=1|38=30|115=PCUS|44=0.20|1=TEST|60=20141120-18:37:44.552|311=WTW|202=80.00|77=O|201=1|167=OPT|200=201605|205=15|59=0|10=118| 
13:10:38.314828 5616 ReadAndLogicThread.cpp:493 Outgoing FIX len 103: 8=FIX.4.2|9=080|35=8|52=20141121-19:10:38.266|49=XXXX|56=YYYY|34=65|11=2701|150=2|32=50|31=0.40|10=228| 
13:10:38.316819 5616 FixParser.cpp:42 `Incoming Fix len 274: 8=FIX.4.2|9=251|35=D|52=20141121-19:10:38.267|49=_SenderCompID|56=_TargetCompID|34=160|11=2801|21=1|100=SMARTO|40=2|47=I|55=PYPL  150515C00050000|54=2|38=50|115=PCUS|44=0.45|1=TEST|60=20141121-19:10:38.267|311=PYPL|202=50.00|77=C|201=1|167=OPT|200=201505|205=15|59=0|10=161|FIX.4.2|9=247|35=D|52=20141120-18:37:44.552|49=_SenderCompID|56=_TargetCompID|34=88|11=2001|21=1|100=MIAX|40=2|47=I|55=WTW   160515C00080000|54=1|38=30|115=PCUS|44=0.20|1=TEST|60=20141120-18:37:44.552|311=WTW|202=80.00|77=O|201=1|167=OPT|200=201605|205=15|59=0|10=118| 
13:10:38.317887 5616 ReadAndLogicThread.cpp:493 Outgoing FIX len 89: 8=FIX.4.2|9=066|35=8|52=20141121-19:10:38.269|49=XXXX|56=YYYY|34=66|11=2801|150=0|10=127| 
13:10:46.467225 5616 ReadAndLogicThread.cpp:493 Outgoing FIX len 102: 8=FIX.4.2|9=079|35=8|52=20141121-19:10:46.418|49=XXXX|56=YYYY|34=67|11=2601|150=2|32=5|31=0.25|10=190| 
13:11:08.267954 5616 FixParser.cpp:42 `Incoming Fix len 94: 8=FIX.4.2|9=071|35=0|52=20141121-19:11:08.219|49=_SenderCompID|56=_TargetCompID|34=161|10=035||21=1|100=SMARTO|40=2|47=I|55=PYPL  150515C00050000|54=2|38=50|115=PCUS|44=0.45|1=TEST|60=20141121-19:10:38.267|311=PYPL|202=50.00|77=C|201=1|167=OPT|200=201505|205=15|59=0|10=161|FIX.4.2|9=247|35=D|52=20141120-18:37:44.552|49=_SenderCompID|56=_TargetCompID|34=88|11=2001|21=1|100=MIAX|40=2|47=I|55=WTW   160515C00080000|54=1|38=30|115=PCUS|44=0.20|1=TEST|60=20141120-18:37:44.552|311=WTW|202=80.00|77=O|201=1|167=OPT|200=201605|205=15|59=0|10=118| 
13:11:23.601661 5616 ReadAndLogicThread.cpp:493 Outgoing FIX len 103: 8=FIX.4.2|9=080|35=8|52=20141121-19:11:23.554|49=XXXX|56=YYYY|34=68|11=2801|150=1|32=10|31=0.45|10=227| 
13:11:25.162497 5616 ReadAndLogicThread.cpp:493 Outgoing FIX len 103: 8=FIX.4.2|9=080|35=8|52=20141121-19:11:25.115|49=XXXX|56=YYYY|34=69|11=2801|150=1|32=10|31=0.45|10=223| 
13:11:29.477024 5616 FixParser.cpp:42 `Incoming Fix len 250: 8=FIX.4.2|9=227|35=F|52=20141121-19:11:29.429|49=_SenderCompID|56=_TargetCompID|34=162|11=2801.0|41=2801|60=20141121-19:11:29.429|55=PYPL|38=50|100=SMARTO|1=TEST|55=PYPL  150515C00050000|202=50.00|201=1|200=201505|167=OPT|205=15|115=PCUS|54=2|10=123|1505|205=15|59=0|10=161|FIX.4.2|9=247|35=D|52=20141120-18:37:44.552|49=_SenderCompID|56=_TargetCompID|34=88|11=2001|21=1|100=MIAX|40=2|47=I|55=WTW   160515C00080000|54=1|38=30|115=PCUS|44=0.20|1=TEST|60=20141120-18:37:44.552|311=WTW|202=80.00|77=O|201=1|167=OPT|200=201605|205=15|59=0|10=118| 
13:11:37.344978 5616 ReadAndLogicThread.cpp:493 Outgoing FIX len 89: 8=FIX.4.2|9=066|35=8|52=20141121-19:11:37.297|49=XXXX|56=YYYY|34=70|11=2801|150=4|10=127| 
13:11:37.349003 5616 FixParser.cpp:42 `Incoming Fix len 274: 8=FIX.4.2|9=251|35=D|52=20141121-19:11:37.300|49=_SenderCompID|56=_TargetCompID|34=163|11=2901|21=1|100=SMARTO|40=2|47=I|55=PYPL  150515C00050000|54=2|38=30|115=PCUS|44=0.40|1=TEST|60=20141121-19:11:37.300|311=PYPL|202=50.00|77=C|201=1|167=OPT|200=201505|205=15|59=0|10=134|FIX.4.2|9=247|35=D|52=20141120-18:37:44.552|49=_SenderCompID|56=_TargetCompID|34=88|11=2001|21=1|100=MIAX|40=2|47=I|55=WTW   160515C00080000|54=1|38=30|115=PCUS|44=0.20|1=TEST|60=20141120-18:37:44.552|311=WTW|202=80.00|77=O|201=1|167=OPT|200=201605|205=15|59=0|10=118| 
13:11:37.349950 5616 ReadAndLogicThread.cpp:493 Outgoing FIX len 89: 8=FIX.4.2|9=066|35=8|52=20141121-19:11:37.302|49=XXXX|56=YYYY|34=71|11=2901|150=0|10=112| 
13:12:07.298180 5616 FixParser.cpp:42 `Incoming Fix len 94: 8=FIX.4.2|9=071|35=0|52=20141121-19:12:07.251|49=_SenderCompID|56=_TargetCompID|34=164|10=034||21=1|100=SMARTO|40=2|47=I|55=PYPL  150515C00050000|54=2|38=30|115=PCUS|44=0.40|1=TEST|60=20141121-19:11:37.300|311=PYPL|202=50.00|77=C|201=1|167=OPT|200=201505|205=15|59=0|10=134|FIX.4.2|9=247|35=D|52=20141120-18:37:44.552|49=_SenderCompID|56=_TargetCompID|34=88|11=2001|21=1|100=MIAX|40=2|47=I|55=WTW   160515C00080000|54=1|38=30|115=PCUS|44=0.20|1=TEST|60=20141120-18:37:44.552|311=WTW|202=80.00|77=O|201=1|167=OPT|200=201605|205=15|59=0|10=118| 
13:12:13.255489 5616 ReadAndLogicThread.cpp:493 Outgoing FIX len 110: 8=FIX.4.2|9=087|35=8|52=20141121-19:12:13.208|49=XXXX|56=YYYY|34=72|11=2901|150=2|32=30|31=0.40|9999=1|10=051| 
13:12:22.443799 5616 FixParser.cpp:42 `Incoming Fix len 247: 8=FIX.4.2|9=224|35=F|52=20141121-19:12:22.397|49=_SenderCompID|56=_TargetCompID|34=165|11=2501.0|41=2501|60=20141121-19:12:22.397|55=WTW|38=30|100=MIAX|1=TEST|55=WTW   160515C00080000|202=80.00|201=1|200=201605|167=OPT|205=15|115=PCUS|54=1|10=105|=201505|205=15|59=0|10=134|FIX.4.2|9=247|35=D|52=20141120-18:37:44.552|49=_SenderCompID|56=_TargetCompID|34=88|11=2001|21=1|100=MIAX|40=2|47=I|55=WTW   160515C00080000|54=1|38=30|115=PCUS|44=0.20|1=TEST|60=20141120-18:37:44.552|311=WTW|202=80.00|77=O|201=1|167=OPT|200=201605|205=15|59=0|10=118| 
13:12:27.279922 5616 ReadAndLogicThread.cpp:493 Outgoing FIX len 89: 8=FIX.4.2|9=066|35=8|52=20141121-19:12:27.233|49=XXXX|56=YYYY|34=73|11=2501|150=4|10=117| 
13:12:42.119367 5616 FixParser.cpp:42 `Incoming Fix len 273: 8=FIX.4.2|9=250|35=D|52=20141121-19:12:42.072|49=_SenderCompID|56=_TargetCompID|34=166|11=3001|21=1|100=PHLXO|40=2|47=I|55=PYPL  150515C00050000|54=2|38=50|115=PCUS|44=0.50|1=TEST|60=20141121-19:12:42.072|311=PYPL|202=50.00|77=O|201=1|167=OPT|200=201505|205=15|59=0|10=074||FIX.4.2|9=247|35=D|52=20141120-18:37:44.552|49=_SenderCompID|56=_TargetCompID|34=88|11=2001|21=1|100=MIAX|40=2|47=I|55=WTW   160515C00080000|54=1|38=30|115=PCUS|44=0.20|1=TEST|60=20141120-18:37:44.552|311=WTW|202=80.00|77=O|201=1|167=OPT|200=201605|205=15|59=0|10=118| 
13:12:42.120462 5616 ReadAndLogicThread.cpp:493 Outgoing FIX len 89: 8=FIX.4.2|9=066|35=8|52=20141121-19:12:42.074|49=XXXX|56=YYYY|34=74|11=3001|150=0|10=110| 
13:12:46.970694 5616 FixParser.cpp:42 `Incoming Fix len 273: 8=FIX.4.2|9=250|35=D|52=20141121-19:12:46.924|49=_SenderCompID|56=_TargetCompID|34=167|11=3101|21=1|100=PHLXO|40=2|47=I|55=PYPL  150515C00050000|54=1|38=50|115=PCUS|44=0.40|1=TEST|60=20141121-19:12:46.924|311=PYPL|202=50.00|77=O|201=1|167=OPT|200=201505|205=15|59=0|10=094||FIX.4.2|9=247|35=D|52=20141120-18:37:44.552|49=_SenderCompID|56=_TargetCompID|34=88|11=2001|21=1|100=MIAX|40=2|47=I|55=WTW   160515C00080000|54=1|38=30|115=PCUS|44=0.20|1=TEST|60=20141120-18:37:44.552|311=WTW|202=80.00|77=O|201=1|167=OPT|200=201605|205=15|59=0|10=118| 
13:12:46.971710 5616 ReadAndLogicThread.cpp:493 Outgoing FIX len 89: 8=FIX.4.2|9=066|35=8|52=20141121-19:12:46.925|49=XXXX|56=YYYY|34=75|11=3101|150=0|10=121| 
13:13:16.922593 5616 FixParser.cpp:42 `Incoming Fix len 94: 8=FIX.4.2|9=071|35=0|52=20141121-19:13:16.876|49=_SenderCompID|56=_TargetCompID|34=168|10=052||21=1|100=PHLXO|40=2|47=I|55=PYPL  150515C00050000|54=1|38=50|115=PCUS|44=0.40|1=TEST|60=20141121-19:12:46.924|311=PYPL|202=50.00|77=O|201=1|167=OPT|200=201505|205=15|59=0|10=094||FIX.4.2|9=247|35=D|52=20141120-18:37:44.552|49=_SenderCompID|56=_TargetCompID|34=88|11=2001|21=1|100=MIAX|40=2|47=I|55=WTW   160515C00080000|54=1|38=30|115=PCUS|44=0.20|1=TEST|60=20141120-18:37:44.552|311=WTW|202=80.00|77=O|201=1|167=OPT|200=201605|205=15|59=0|10=118| 
13:13:22.662894 5616 ReadAndLogicThread.cpp:493 Outgoing FIX len 110: 8=FIX.4.2|9=087|35=8|52=20141121-19:13:22.617|49=XXXX|56=YYYY|34=76|11=3001|150=1|32=15|31=0.50|9999=1|10=055| 
13:13:22.666813 5616 FixParser.cpp:42 `Incoming Fix len 272: 8=FIX.4.2|9=249|35=D|52=20141121-19:13:22.620|49=_SenderCompID|56=_TargetCompID|34=169|11=3201|21=1|100=ISEO|40=2|47=I|55=PYPL  150515C00050000|54=1|38=15|115=PCUS|44=0.45|1=TEST|60=20141121-19:13:22.620|311=PYPL|202=50.00|77=C|201=1|167=OPT|200=201505|205=15|59=0|10=240|||FIX.4.2|9=247|35=D|52=20141120-18:37:44.552|49=_SenderCompID|56=_TargetCompID|34=88|11=2001|21=1|100=MIAX|40=2|47=I|55=WTW   160515C00080000|54=1|38=30|115=PCUS|44=0.20|1=TEST|60=20141120-18:37:44.552|311=WTW|202=80.00|77=O|201=1|167=OPT|200=201605|205=15|59=0|10=118| 
13:13:22.668441 5616 ReadAndLogicThread.cpp:493 Outgoing FIX len 89: 8=FIX.4.2|9=066|35=8|52=20141121-19:13:22.622|49=XXXX|56=YYYY|34=77|11=3201|150=0|10=113| 
13:13:52.617927 5616 FixParser.cpp:42 `Incoming Fix len 94: 8=FIX.4.2|9=071|35=0|52=20141121-19:13:52.572|49=_SenderCompID|56=_TargetCompID|34=170|10=038||21=1|100=ISEO|40=2|47=I|55=PYPL  150515C00050000|54=1|38=15|115=PCUS|44=0.45|1=TEST|60=20141121-19:13:22.620|311=PYPL|202=50.00|77=C|201=1|167=OPT|200=201505|205=15|59=0|10=240|||FIX.4.2|9=247|35=D|52=20141120-18:37:44.552|49=_SenderCompID|56=_TargetCompID|34=88|11=2001|21=1|100=MIAX|40=2|47=I|55=WTW   160515C00080000|54=1|38=30|115=PCUS|44=0.20|1=TEST|60=20141120-18:37:44.552|311=WTW|202=80.00|77=O|201=1|167=OPT|200=201605|205=15|59=0|10=118| 
13:13:54.806072 5616 ReadAndLogicThread.cpp:493 Outgoing FIX len 111: 8=FIX.4.2|9=088|35=8|52=20141121-19:13:54.761|49=XXXX|56=YYYY|34=78|11=3201|150=2|32=15|31=0.45|9998=12|10=119| 
13:14:02.237277 5616 ReadAndLogicThread.cpp:493 Outgoing FIX len 103: 8=FIX.4.2|9=080|35=8|52=20141121-19:14:02.193|49=XXXX|56=YYYY|34=79|11=3001|150=1|32=15|31=0.50|10=222| 
13:14:02.239403 5616 FixParser.cpp:42 `Incoming Fix len 272: 8=FIX.4.2|9=249|35=D|52=20141121-19:14:02.195|49=_SenderCompID|56=_TargetCompID|34=171|11=3301|21=1|100=ISEO|40=2|47=I|55=PYPL  150515C00050000|54=1|38=15|115=PCUS|44=0.45|1=TEST|60=20141121-19:14:02.195|311=PYPL|202=50.00|77=C|201=1|167=OPT|200=201505|205=15|59=0|10=246|||FIX.4.2|9=247|35=D|52=20141120-18:37:44.552|49=_SenderCompID|56=_TargetCompID|34=88|11=2001|21=1|100=MIAX|40=2|47=I|55=WTW   160515C00080000|54=1|38=30|115=PCUS|44=0.20|1=TEST|60=20141120-18:37:44.552|311=WTW|202=80.00|77=O|201=1|167=OPT|200=201605|205=15|59=0|10=118| 
13:14:02.240345 5616 ReadAndLogicThread.cpp:493 Outgoing FIX len 89: 8=FIX.4.2|9=066|35=8|52=20141121-19:14:02.196|49=XXXX|56=YYYY|34=80|11=3301|150=0|10=113| 
13:14:32.191394 5616 FixParser.cpp:42 `Incoming Fix len 94: 8=FIX.4.2|9=071|35=0|52=20141121-19:14:32.146|49=_SenderCompID|56=_TargetCompID|34=172|10=036||21=1|100=ISEO|40=2|47=I|55=PYPL  150515C00050000|54=1|38=15|115=PCUS|44=0.45|1=TEST|60=20141121-19:14:02.195|311=PYPL|202=50.00|77=C|201=1|167=OPT|200=201505|205=15|59=0|10=246|||FIX.4.2|9=247|35=D|52=20141120-18:37:44.552|49=_SenderCompID|56=_TargetCompID|34=88|11=2001|21=1|100=MIAX|40=2|47=I|55=WTW   160515C00080000|54=1|38=30|115=PCUS|44=0.20|1=TEST|60=20141120-18:37:44.552|311=WTW|202=80.00|77=O|201=1|167=OPT|200=201605|205=15|59=0|10=118| 
13:14:40.854881 5616 FixParser.cpp:42 `Incoming Fix len 272: 8=FIX.4.2|9=249|35=D|52=20141121-19:14:40.810|49=_SenderCompID|56=_TargetCompID|34=173|11=3401|21=1|100=BATSO|40=2|47=I|55=SVU   160515C00033000|54=2|38=50|115=PCUS|44=0.60|1=TEST|60=20141121-19:14:40.810|311=SVU|202=33.00|77=O|201=1|167=OPT|200=201605|205=15|59=0|10=217|||FIX.4.2|9=247|35=D|52=20141120-18:37:44.552|49=_SenderCompID|56=_TargetCompID|34=88|11=2001|21=1|100=MIAX|40=2|47=I|55=WTW   160515C00080000|54=1|38=30|115=PCUS|44=0.20|1=TEST|60=20141120-18:37:44.552|311=WTW|202=80.00|77=O|201=1|167=OPT|200=201605|205=15|59=0|10=118| 
13:14:40.862958 5616 ReadAndLogicThread.cpp:493 Outgoing FIX len 89: 8=FIX.4.2|9=066|35=8|52=20141121-19:14:40.818|49=XXXX|56=YYYY|34=81|11=3401|150=0|10=118| 
13:15:05.746681 5616 ReadAndLogicThread.cpp:493 Outgoing FIX len 103: 8=FIX.4.2|9=080|35=8|52=20141121-19:15:05.703|49=XXXX|56=YYYY|34=82|11=3401|150=1|32=30|31=0.60|10=219| 
13:15:05.753563 5616 FixParser.cpp:42 `Incoming Fix len 273: 8=FIX.4.2|9=250|35=D|52=20141121-19:15:05.709|49=_SenderCompID|56=_TargetCompID|34=174|11=3501|21=1|100=SMARTO|40=2|47=I|55=SVU   160515C00033000|54=1|38=30|115=PCUS|44=0.55|1=TEST|60=20141121-19:15:05.709|311=SVU|202=33.00|77=C|201=1|167=OPT|200=201605|205=15|59=0|10=055||FIX.4.2|9=247|35=D|52=20141120-18:37:44.552|49=_SenderCompID|56=_TargetCompID|34=88|11=2001|21=1|100=MIAX|40=2|47=I|55=WTW   160515C00080000|54=1|38=30|115=PCUS|44=0.20|1=TEST|60=20141120-18:37:44.552|311=WTW|202=80.00|77=O|201=1|167=OPT|200=201605|205=15|59=0|10=118| 
13:15:05.754683 5616 ReadAndLogicThread.cpp:493 Outgoing FIX len 89: 8=FIX.4.2|9=066|35=8|52=20141121-19:15:05.711|49=XXXX|56=YYYY|34=83|11=3501|150=0|10=115| 
13:15:35.703722 5616 FixParser.cpp:42 `Incoming Fix len 94: 8=FIX.4.2|9=071|35=0|52=20141121-19:15:35.660|49=_SenderCompID|56=_TargetCompID|34=175|10=044||21=1|100=SMARTO|40=2|47=I|55=SVU   160515C00033000|54=1|38=30|115=PCUS|44=0.55|1=TEST|60=20141121-19:15:05.709|311=SVU|202=33.00|77=C|201=1|167=OPT|200=201605|205=15|59=0|10=055||FIX.4.2|9=247|35=D|52=20141120-18:37:44.552|49=_SenderCompID|56=_TargetCompID|34=88|11=2001|21=1|100=MIAX|40=2|47=I|55=WTW   160515C00080000|54=1|38=30|115=PCUS|44=0.20|1=TEST|60=20141120-18:37:44.552|311=WTW|202=80.00|77=O|201=1|167=OPT|200=201605|205=15|59=0|10=118| 
13:15:51.889417 5616 ReadAndLogicThread.cpp:493 Outgoing FIX len 103: 8=FIX.4.2|9=080|35=8|52=20141121-19:15:51.847|49=XXXX|56=YYYY|34=84|11=3301|150=1|32=10|31=0.45|10=231| 
13:16:05.653820 5616 FixParser.cpp:42 `Incoming Fix len 94: 8=FIX.4.2|9=071|35=0|52=20141121-19:16:05.612|49=_SenderCompID|56=_TargetCompID|34=176|10=040||21=1|100=SMARTO|40=2|47=I|55=SVU   160515C00033000|54=1|38=30|115=PCUS|44=0.55|1=TEST|60=20141121-19:15:05.709|311=SVU|202=33.00|77=C|201=1|167=OPT|200=201605|205=15|59=0|10=055||FIX.4.2|9=247|35=D|52=20141120-18:37:44.552|49=_SenderCompID|56=_TargetCompID|34=88|11=2001|21=1|100=MIAX|40=2|47=I|55=WTW   160515C00080000|54=1|38=30|115=PCUS|44=0.20|1=TEST|60=20141120-18:37:44.552|311=WTW|202=80.00|77=O|201=1|167=OPT|200=201605|205=15|59=0|10=118| 
13:16:22.792474 5616 ReadAndLogicThread.cpp:493 Outgoing FIX len 103: 8=FIX.4.2|9=080|35=8|52=20141121-19:16:22.751|49=XXXX|56=YYYY|34=85|11=3401|150=1|32=10|31=0.60|10=223| 
13:16:22.796379 5616 FixParser.cpp:42 `Incoming Fix len 273: 8=FIX.4.2|9=250|35=D|52=20141121-19:16:22.754|49=_SenderCompID|56=_TargetCompID|34=177|11=3601|21=1|100=SMARTO|40=2|47=I|55=SVU   160515C00033000|54=1|38=10|115=PCUS|44=0.55|1=TEST|60=20141121-19:16:22.754|311=SVU|202=33.00|77=C|201=1|167=OPT|200=201605|205=15|59=0|10=057||FIX.4.2|9=247|35=D|52=20141120-18:37:44.552|49=_SenderCompID|56=_TargetCompID|34=88|11=2001|21=1|100=MIAX|40=2|47=I|55=WTW   160515C00080000|54=1|38=30|115=PCUS|44=0.20|1=TEST|60=20141120-18:37:44.552|311=WTW|202=80.00|77=O|201=1|167=OPT|200=201605|205=15|59=0|10=118| 
13:16:22.797468 5616 ReadAndLogicThread.cpp:493 Outgoing FIX len 89: 8=FIX.4.2|9=066|35=8|52=20141121-19:16:22.756|49=XXXX|56=YYYY|34=86|11=3601|150=0|10=128| 
13:16:42.058133 5616 FixParser.cpp:42 `Incoming Fix len 249: 8=FIX.4.2|9=226|35=F|52=20141121-19:16:42.016|49=_SenderCompID|56=_TargetCompID|34=178|11=3101.0|41=3101|60=20141121-19:16:42.016|55=PYPL|38=50|100=PHLXO|1=TEST|55=PYPL  150515C00050000|202=50.00|201=1|200=201505|167=OPT|205=15|115=PCUS|54=1|10=025|1605|205=15|59=0|10=057||FIX.4.2|9=247|35=D|52=20141120-18:37:44.552|49=_SenderCompID|56=_TargetCompID|34=88|11=2001|21=1|100=MIAX|40=2|47=I|55=WTW   160515C00080000|54=1|38=30|115=PCUS|44=0.20|1=TEST|60=20141120-18:37:44.552|311=WTW|202=80.00|77=O|201=1|167=OPT|200=201605|205=15|59=0|10=118| 
13:16:42.061115 5616 FixParser.cpp:42 `Incoming Fix len 249: 8=FIX.4.2|9=226|35=F|52=20141121-19:16:42.019|49=_SenderCompID|56=_TargetCompID|34=179|11=3001.0|41=3001|60=20141121-19:16:42.019|55=PYPL|38=50|100=PHLXO|1=TEST|55=PYPL  150515C00050000|202=50.00|201=1|200=201505|167=OPT|205=15|115=PCUS|54=2|10=031|1605|205=15|59=0|10=057||FIX.4.2|9=247|35=D|52=20141120-18:37:44.552|49=_SenderCompID|56=_TargetCompID|34=88|11=2001|21=1|100=MIAX|40=2|47=I|55=WTW   160515C00080000|54=1|38=30|115=PCUS|44=0.20|1=TEST|60=20141120-18:37:44.552|311=WTW|202=80.00|77=O|201=1|167=OPT|200=201605|205=15|59=0|10=118| 
13:16:42.062190 5616 FixParser.cpp:42 `Incoming Fix len 248: 8=FIX.4.2|9=225|35=F|52=20141121-19:16:42.020|49=_SenderCompID|56=_TargetCompID|34=180|11=3301.0|41=3301|60=20141121-19:16:42.020|55=PYPL|38=15|100=ISEO|1=TEST|55=PYPL  150515C00050000|202=50.00|201=1|200=201505|167=OPT|205=15|115=PCUS|54=1|10=177||1605|205=15|59=0|10=057||FIX.4.2|9=247|35=D|52=20141120-18:37:44.552|49=_SenderCompID|56=_TargetCompID|34=88|11=2001|21=1|100=MIAX|40=2|47=I|55=WTW   160515C00080000|54=1|38=30|115=PCUS|44=0.20|1=TEST|60=20141120-18:37:44.552|311=WTW|202=80.00|77=O|201=1|167=OPT|200=201605|205=15|59=0|10=118| 
13:16:46.193285 5616 ReadAndLogicThread.cpp:493 Outgoing FIX len 89: 8=FIX.4.2|9=066|35=8|52=20141121-19:16:46.152|49=XXXX|56=YYYY|34=87|11=3001|150=4|10=123| 
13:16:48.065283 5616 ReadAndLogicThread.cpp:493 Outgoing FIX len 89: 8=FIX.4.2|9=066|35=8|52=20141121-19:16:48.024|49=XXXX|56=YYYY|34=88|11=3101|150=4|10=125| 
13:16:49.744480 5616 ReadAndLogicThread.cpp:493 Outgoing FIX len 89: 8=FIX.4.2|9=066|35=8|52=20141121-19:16:49.703|49=XXXX|56=YYYY|34=89|11=3301|150=4|10=133| 
13:16:49.750417 5616 FixParser.cpp:42 `Incoming Fix len 272: 8=FIX.4.2|9=249|35=D|52=20141121-19:16:49.708|49=_SenderCompID|56=_TargetCompID|34=181|11=3701|21=1|100=CBOEO|40=2|47=I|55=PYPL  150515C00050000|54=1|38=5|115=PCUS|44=0.50|1=TEST|60=20141121-19:16:49.708|311=PYPL|202=50.00|77=C|201=1|167=OPT|200=201505|205=15|59=0|10=024|||FIX.4.2|9=247|35=D|52=20141120-18:37:44.552|49=_SenderCompID|56=_TargetCompID|34=88|11=2001|21=1|100=MIAX|40=2|47=I|55=WTW   160515C00080000|54=1|38=30|115=PCUS|44=0.20|1=TEST|60=20141120-18:37:44.552|311=WTW|202=80.00|77=O|201=1|167=OPT|200=201605|205=15|59=0|10=118| 
13:16:49.751463 5616 ReadAndLogicThread.cpp:493 Outgoing FIX len 89: 8=FIX.4.2|9=066|35=8|52=20141121-19:16:49.710|49=XXXX|56=YYYY|34=90|11=3701|150=0|10=123| 
